{
  "contractName": "RockPaperScissors",
  "abi": [
    {
      "constant": true,
      "inputs": [
        {
          "name": "playerNumber",
          "type": "int256"
        }
      ],
      "name": "hasLocked",
      "outputs": [
        {
          "name": "",
          "type": "bool"
        }
      ],
      "payable": false,
      "stateMutability": "view",
      "type": "function",
      "signature": "0xaf88323f"
    },
    {
      "constant": true,
      "inputs": [
        {
          "name": "playerNumber",
          "type": "int256"
        }
      ],
      "name": "hasRevealed",
      "outputs": [
        {
          "name": "",
          "type": "bool"
        }
      ],
      "payable": false,
      "stateMutability": "view",
      "type": "function",
      "signature": "0x6d075586"
    },
    {
      "constant": true,
      "inputs": [
        {
          "name": "playerNumber",
          "type": "int256"
        }
      ],
      "name": "getPlayer",
      "outputs": [
        {
          "name": "",
          "type": "address"
        }
      ],
      "payable": false,
      "stateMutability": "view",
      "type": "function",
      "signature": "0x4a60f7e6"
    },
    {
      "constant": true,
      "inputs": [
        {
          "name": "playerNumber",
          "type": "int256"
        }
      ],
      "name": "getRevealed",
      "outputs": [
        {
          "name": "",
          "type": "string"
        }
      ],
      "payable": false,
      "stateMutability": "view",
      "type": "function",
      "signature": "0x22327e73"
    },
    {
      "constant": true,
      "inputs": [
        {
          "name": "playerNumber",
          "type": "int256"
        }
      ],
      "name": "getHash",
      "outputs": [
        {
          "name": "",
          "type": "bytes32"
        }
      ],
      "payable": false,
      "stateMutability": "view",
      "type": "function",
      "signature": "0x595cb289"
    },
    {
      "constant": true,
      "inputs": [],
      "name": "getWinner",
      "outputs": [
        {
          "name": "",
          "type": "int256"
        }
      ],
      "payable": false,
      "stateMutability": "view",
      "type": "function",
      "signature": "0x8e7ea5b2"
    },
    {
      "constant": false,
      "inputs": [],
      "name": "resetVariables",
      "outputs": [],
      "payable": false,
      "stateMutability": "nonpayable",
      "type": "function",
      "signature": "0x3fbc9801"
    },
    {
      "constant": false,
      "inputs": [
        {
          "name": "playerNumber",
          "type": "int256"
        }
      ],
      "name": "registerPlayer",
      "outputs": [],
      "payable": true,
      "stateMutability": "payable",
      "type": "function",
      "signature": "0x12c12c2f"
    },
    {
      "constant": false,
      "inputs": [
        {
          "name": "playerNumber",
          "type": "int256"
        },
        {
          "name": "shape",
          "type": "string"
        },
        {
          "name": "randomStringToHash",
          "type": "string"
        }
      ],
      "name": "lockShape",
      "outputs": [],
      "payable": false,
      "stateMutability": "nonpayable",
      "type": "function",
      "signature": "0x083be753"
    },
    {
      "constant": false,
      "inputs": [
        {
          "name": "playerNumber",
          "type": "int256"
        },
        {
          "name": "shape",
          "type": "string"
        },
        {
          "name": "randomStringToHash",
          "type": "string"
        }
      ],
      "name": "revealShape",
      "outputs": [],
      "payable": false,
      "stateMutability": "nonpayable",
      "type": "function",
      "signature": "0x7381f8dd"
    },
    {
      "constant": true,
      "inputs": [
        {
          "name": "revealedP1",
          "type": "string"
        },
        {
          "name": "revealedP2",
          "type": "string"
        }
      ],
      "name": "computeWinner",
      "outputs": [
        {
          "name": "",
          "type": "int256"
        }
      ],
      "payable": false,
      "stateMutability": "pure",
      "type": "function",
      "signature": "0x9c839874"
    },
    {
      "constant": false,
      "inputs": [],
      "name": "play",
      "outputs": [],
      "payable": true,
      "stateMutability": "payable",
      "type": "function",
      "signature": "0x93e84cd9"
    },
    {
      "constant": true,
      "inputs": [
        {
          "name": "addr",
          "type": "address"
        }
      ],
      "name": "nullifyAddr",
      "outputs": [],
      "payable": false,
      "stateMutability": "pure",
      "type": "function",
      "signature": "0x9e8605e5"
    },
    {
      "constant": true,
      "inputs": [
        {
          "name": "stringA",
          "type": "string"
        },
        {
          "name": "stringB",
          "type": "string"
        }
      ],
      "name": "stringsEqual",
      "outputs": [
        {
          "name": "",
          "type": "bool"
        }
      ],
      "payable": false,
      "stateMutability": "pure",
      "type": "function",
      "signature": "0x13d19950"
    }
  ],
  "bytecode": "0x608060405234801561001057600080fd5b50612397806100206000396000f3fe6080604052600436106100d0576000357c0100000000000000000000000000000000000000000000000000000000900463ffffffff168063083be753146100d557806312c12c2f1461023e57806313d199501461026c57806322327e73146103e35780633fbc9801146104975780634a60f7e6146104ae578063595cb289146105295780636d075586146105785780637381f8dd146105cb5780638e7ea5b21461073457806393e84cd91461075f5780639c839874146107695780639e8605e5146108dc578063af88323f1461092d575b600080fd5b3480156100e157600080fd5b5061023c600480360360608110156100f857600080fd5b81019080803590602001909291908035906020019064010000000081111561011f57600080fd5b82018360208201111561013157600080fd5b8035906020019184600183028401116401000000008311171561015357600080fd5b91908080601f016020809104026020016040519081016040528093929190818152602001838380828437600081840152601f19601f820116905080830192505050505050509192919290803590602001906401000000008111156101b657600080fd5b8201836020820111156101c857600080fd5b803590602001918460018302840111640100000000831117156101ea57600080fd5b91908080601f016020809104026020016040519081016040528093929190818152602001838380828437600081840152601f19601f820116905080830192505050505050509192919290505050610980565b005b61026a6004803603602081101561025457600080fd5b8101908080359060200190929190505050610c02565b005b34801561027857600080fd5b506103c96004803603604081101561028f57600080fd5b81019080803590602001906401000000008111156102ac57600080fd5b8201836020820111156102be57600080fd5b803590602001918460018302840111640100000000831117156102e057600080fd5b91908080601f016020809104026020016040519081016040528093929190818152602001838380828437600081840152601f19601f8201169050808301925050505050505091929192908035906020019064010000000081111561034357600080fd5b82018360208201111561035557600080fd5b8035906020019184600183028401116401000000008311171561037757600080fd5b91908080601f016020809104026020016040519081016040528093929190818152602001838380828437600081840152601f19601f820116905080830192505050505050509192919290505050610e11565b604051808215151515815260200191505060405180910390f35b3480156103ef57600080fd5b5061041c6004803603602081101561040657600080fd5b8101908080359060200190929190505050610f66565b6040518080602001828103825283818151815260200191508051906020019080838360005b8381101561045c578082015181840152602081019050610441565b50505050905090810190601f1680156104895780820380516001836020036101000a031916815260200191505b509250505060405180910390f35b3480156104a357600080fd5b506104ac6110b6565b005b3480156104ba57600080fd5b506104e7600480360360208110156104d157600080fd5b8101908080359060200190929190505050611171565b604051808273ffffffffffffffffffffffffffffffffffffffff1673ffffffffffffffffffffffffffffffffffffffff16815260200191505060405180910390f35b34801561053557600080fd5b506105626004803603602081101561054c57600080fd5b81019080803590602001909291905050506111d0565b6040518082815260200191505060405180910390f35b34801561058457600080fd5b506105b16004803603602081101561059b57600080fd5b81019080803590602001909291905050506111f0565b604051808215151515815260200191505060405180910390f35b3480156105d757600080fd5b50610732600480360360608110156105ee57600080fd5b81019080803590602001909291908035906020019064010000000081111561061557600080fd5b82018360208201111561062757600080fd5b8035906020019184600183028401116401000000008311171561064957600080fd5b91908080601f016020809104026020016040519081016040528093929190818152602001838380828437600081840152601f19601f820116905080830192505050505050509192919290803590602001906401000000008111156106ac57600080fd5b8201836020820111156106be57600080fd5b803590602001918460018302840111640100000000831117156106e057600080fd5b91908080601f016020809104026020016040519081016040528093929190818152602001838380828437600081840152601f19601f820116905080830192505050505050509192919290505050611374565b005b34801561074057600080fd5b5061074961195f565b6040518082815260200191505060405180910390f35b610767611969565b005b34801561077557600080fd5b506108c66004803603604081101561078c57600080fd5b81019080803590602001906401000000008111156107a957600080fd5b8201836020820111156107bb57600080fd5b803590602001918460018302840111640100000000831117156107dd57600080fd5b91908080601f016020809104026020016040519081016040528093929190818152602001838380828437600081840152601f19601f8201169050808301925050505050505091929192908035906020019064010000000081111561084057600080fd5b82018360208201111561085257600080fd5b8035906020019184600183028401116401000000008311171561087457600080fd5b91908080601f016020809104026020016040519081016040528093929190818152602001838380828437600081840152601f19601f820116905080830192505050505050509192919290505050611ef4565b6040518082815260200191505060405180910390f35b3480156108e857600080fd5b5061092b600480360360208110156108ff57600080fd5b81019080803573ffffffffffffffffffffffffffffffffffffffff169060200190929190505050612291565b005b34801561093957600080fd5b506109666004803603602081101561095057600080fd5b8101908080359060200190929190505050612298565b604051808215151515815260200191505060405180910390f35b826000809054906101000a900473ffffffffffffffffffffffffffffffffffffffff1673ffffffffffffffffffffffffffffffffffffffff163373ffffffffffffffffffffffffffffffffffffffff161480156109dd5750600181145b80610a415750600160009054906101000a900473ffffffffffffffffffffffffffffffffffffffff1673ffffffffffffffffffffffffffffffffffffffff163373ffffffffffffffffffffffffffffffffffffffff16148015610a405750600281145b5b1515610a4c57600080fd5b6000809054906101000a900473ffffffffffffffffffffffffffffffffffffffff1673ffffffffffffffffffffffffffffffffffffffff163373ffffffffffffffffffffffffffffffffffffffff161480610af45750600160009054906101000a900473ffffffffffffffffffffffffffffffffffffffff1673ffffffffffffffffffffffffffffffffffffffff163373ffffffffffffffffffffffffffffffffffffffff16145b1515610aff57600080fd5b6000809054906101000a900473ffffffffffffffffffffffffffffffffffffffff1673ffffffffffffffffffffffffffffffffffffffff163373ffffffffffffffffffffffffffffffffffffffff16148015610b6057506000600102600254145b15610b7d5781805190602001208380519060200120186002819055505b600160009054906101000a900473ffffffffffffffffffffffffffffffffffffffff1673ffffffffffffffffffffffffffffffffffffffff163373ffffffffffffffffffffffffffffffffffffffff16148015610bdf57506000600102600354145b15610bfc5781805190602001208380519060200120186003819055505b50505050565b6000809054906101000a900473ffffffffffffffffffffffffffffffffffffffff1673ffffffffffffffffffffffffffffffffffffffff163373ffffffffffffffffffffffffffffffffffffffff1614158015610cad5750600160009054906101000a900473ffffffffffffffffffffffffffffffffffffffff1673ffffffffffffffffffffffffffffffffffffffff163373ffffffffffffffffffffffffffffffffffffffff1614155b1515610cb857600080fd5b674563918244f400003410151515610ccf57600080fd5b6001811415610d7457600073ffffffffffffffffffffffffffffffffffffffff166000809054906101000a900473ffffffffffffffffffffffffffffffffffffffff1673ffffffffffffffffffffffffffffffffffffffff161415610d6f57336000806101000a81548173ffffffffffffffffffffffffffffffffffffffff021916908373ffffffffffffffffffffffffffffffffffffffff1602179055505b610e0e565b600073ffffffffffffffffffffffffffffffffffffffff16600160009054906101000a900473ffffffffffffffffffffffffffffffffffffffff1673ffffffffffffffffffffffffffffffffffffffff161415610e0d5733600160006101000a81548173ffffffffffffffffffffffffffffffffffffffff021916908373ffffffffffffffffffffffffffffffffffffffff1602179055505b5b50565b60006060839050606083905080518251141515610e3357600092505050610f60565b60008090505b8251811015610f58578181815181101515610e5057fe5b9060200101517f010000000000000000000000000000000000000000000000000000000000000090047f0100000000000000000000000000000000000000000000000000000000000000027effffffffffffffffffffffffffffffffffffffffffffffffffffffffffffff19168382815181101515610ecb57fe5b9060200101517f010000000000000000000000000000000000000000000000000000000000000090047f0100000000000000000000000000000000000000000000000000000000000000027effffffffffffffffffffffffffffffffffffffffffffffffffffffffffffff1916141515610f4b5760009350505050610f60565b8080600101915050610e39565b506001925050505b92915050565b606060018214156110135760048054600181600116156101000203166002900480601f0160208091040260200160405190810160405280929190818152602001828054600181600116156101000203166002900480156110075780601f10610fdc57610100808354040283529160200191611007565b820191906000526020600020905b815481529060010190602001808311610fea57829003601f168201915b505050505090506110b1565b60058054600181600116156101000203166002900480601f0160208091040260200160405190810160405280929190818152602001828054600181600116156101000203166002900480156110a95780601f1061107e576101008083540402835291602001916110a9565b820191906000526020600020905b81548152906001019060200180831161108c57829003601f168201915b505050505090505b919050565b6020604051908101604052806000815250600490805190602001906110dc9291906122c6565b506020604051908101604052806000815250600590805190602001906111039291906122c6565b5061112e6000809054906101000a900473ffffffffffffffffffffffffffffffffffffffff16612291565b611159600160009054906101000a900473ffffffffffffffffffffffffffffffffffffffff16612291565b60006001026002819055506000600102600381905550565b600060018214156111a5576000809054906101000a900473ffffffffffffffffffffffffffffffffffffffff1690506111cb565b600160009054906101000a900473ffffffffffffffffffffffffffffffffffffffff1690505b919050565b600060018214156111e55760025490506111eb565b60035490505b919050565b600060018214156112b7576112af60048054600181600116156101000203166002900480601f0160208091040260200160405190810160405280929190818152602001828054600181600116156101000203166002900480156112945780601f1061126957610100808354040283529160200191611294565b820191906000526020600020905b81548152906001019060200180831161127757829003601f168201915b50505050506020604051908101604052806000815250610e11565b15905061136f565b61136b60058054600181600116156101000203166002900480601f0160208091040260200160405190810160405280929190818152602001828054600181600116156101000203166002900480156113505780601f1061132557610100808354040283529160200191611350565b820191906000526020600020905b81548152906001019060200180831161133357829003601f168201915b50505050506020604051908101604052806000815250610e11565b1590505b919050565b6000809054906101000a900473ffffffffffffffffffffffffffffffffffffffff1673ffffffffffffffffffffffffffffffffffffffff163373ffffffffffffffffffffffffffffffffffffffff16148061141c5750600160009054906101000a900473ffffffffffffffffffffffffffffffffffffffff1673ffffffffffffffffffffffffffffffffffffffff163373ffffffffffffffffffffffffffffffffffffffff16145b151561142757600080fd5b6000600102600254141580156114435750600060010260035414155b151561144e57600080fd5b826000809054906101000a900473ffffffffffffffffffffffffffffffffffffffff1673ffffffffffffffffffffffffffffffffffffffff163373ffffffffffffffffffffffffffffffffffffffff161480156114ab5750600181145b8061150f5750600160009054906101000a900473ffffffffffffffffffffffffffffffffffffffff1673ffffffffffffffffffffffffffffffffffffffff163373ffffffffffffffffffffffffffffffffffffffff1614801561150e5750600281145b5b151561151a57600080fd5b6000828051906020012084805190602001201890506000809054906101000a900473ffffffffffffffffffffffffffffffffffffffff1673ffffffffffffffffffffffffffffffffffffffff163373ffffffffffffffffffffffffffffffffffffffff16141561174357600254811415611742576115cd846040805190810160405280600481526020017f526f636b00000000000000000000000000000000000000000000000000000000815250610e11565b1561161f576040805190810160405280600481526020017f526f636b000000000000000000000000000000000000000000000000000000008152506004908051906020019061161d9291906122c6565b505b61165e846040805190810160405280600581526020017f5061706572000000000000000000000000000000000000000000000000000000815250610e11565b156116b0576040805190810160405280600581526020017f5061706572000000000000000000000000000000000000000000000000000000815250600490805190602001906116ae9291906122c6565b505b6116ef846040805190810160405280600881526020017f53636973736f7273000000000000000000000000000000000000000000000000815250610e11565b15611741576040805190810160405280600881526020017f53636973736f72730000000000000000000000000000000000000000000000008152506004908051906020019061173f9291906122c6565b505b5b5b600160009054906101000a900473ffffffffffffffffffffffffffffffffffffffff1673ffffffffffffffffffffffffffffffffffffffff163373ffffffffffffffffffffffffffffffffffffffff16141561195857600354811415611957576117e2846040805190810160405280600481526020017f526f636b00000000000000000000000000000000000000000000000000000000815250610e11565b15611834576040805190810160405280600481526020017f526f636b00000000000000000000000000000000000000000000000000000000815250600590805190602001906118329291906122c6565b505b611873846040805190810160405280600581526020017f5061706572000000000000000000000000000000000000000000000000000000815250610e11565b156118c5576040805190810160405280600581526020017f5061706572000000000000000000000000000000000000000000000000000000815250600590805190602001906118c39291906122c6565b505b611904846040805190810160405280600881526020017f53636973736f7273000000000000000000000000000000000000000000000000815250610e11565b15611956576040805190810160405280600881526020017f53636973736f7273000000000000000000000000000000000000000000000000815250600590805190602001906119549291906122c6565b505b5b5b5050505050565b6000600654905090565b6000600102600254141580156119855750600060010260035414155b151561199057600080fd5b611a4460048054600181600116156101000203166002900480601f016020809104026020016040519081016040528092919081815260200182805460018160011615610100020316600290048015611a295780601f106119fe57610100808354040283529160200191611a29565b820191906000526020600020905b815481529060010190602001808311611a0c57829003601f168201915b50505050506020604051908101604052806000815250610e11565b158015611b025750611b0060058054600181600116156101000203166002900480601f016020809104026020016040519081016040528092919081815260200182805460018160011615610100020316600290048015611ae55780601f10611aba57610100808354040283529160200191611ae5565b820191906000526020600020905b815481529060010190602001808311611ac857829003601f168201915b50505050506020604051908101604052806000815250610e11565b155b1515611b0d57600080fd5b6000809054906101000a900473ffffffffffffffffffffffffffffffffffffffff1673ffffffffffffffffffffffffffffffffffffffff163373ffffffffffffffffffffffffffffffffffffffff161480611bb55750600160009054906101000a900473ffffffffffffffffffffffffffffffffffffffff1673ffffffffffffffffffffffffffffffffffffffff163373ffffffffffffffffffffffffffffffffffffffff16145b1515611bc057600080fd5b6000611d0060048054600181600116156101000203166002900480601f016020809104026020016040519081016040528092919081815260200182805460018160011615610100020316600290048015611c5b5780601f10611c3057610100808354040283529160200191611c5b565b820191906000526020600020905b815481529060010190602001808311611c3e57829003601f168201915b505050505060058054600181600116156101000203166002900480601f016020809104026020016040519081016040528092919081815260200182805460018160011615610100020316600290048015611cf65780601f10611ccb57610100808354040283529160200191611cf6565b820191906000526020600020905b815481529060010190602001808311611cd957829003601f168201915b5050505050611ef4565b90506001811415611d80576000809054906101000a900473ffffffffffffffffffffffffffffffffffffffff1673ffffffffffffffffffffffffffffffffffffffff166108fc678ac7230489e800009081150290604051600060405180830381858888f19350505050158015611d7a573d6000803e3d6000fd5b50611ee2565b6002811415611dff57600160009054906101000a900473ffffffffffffffffffffffffffffffffffffffff1673ffffffffffffffffffffffffffffffffffffffff166108fc678ac7230489e800009081150290604051600060405180830381858888f19350505050158015611df9573d6000803e3d6000fd5b50611ee1565b6000809054906101000a900473ffffffffffffffffffffffffffffffffffffffff1673ffffffffffffffffffffffffffffffffffffffff166108fc674563918244f400009081150290604051600060405180830381858888f19350505050158015611e6e573d6000803e3d6000fd5b50600160009054906101000a900473ffffffffffffffffffffffffffffffffffffffff1673ffffffffffffffffffffffffffffffffffffffff166108fc674563918244f400009081150290604051600060405180830381858888f19350505050158015611edf573d6000803e3d6000fd5b505b5b80600681905550611ef16110b6565b50565b6000611f008383610e11565b15611f0e576000905061228b565b611f4d836040805190810160405280600481526020017f526f636b00000000000000000000000000000000000000000000000000000000815250610e11565b8015611f945750611f93826040805190810160405280600881526020017f53636973736f7273000000000000000000000000000000000000000000000000815250610e11565b5b15611fa2576001905061228b565b611fe1836040805190810160405280600481526020017f526f636b00000000000000000000000000000000000000000000000000000000815250610e11565b80156120285750612027826040805190810160405280600581526020017f5061706572000000000000000000000000000000000000000000000000000000815250610e11565b5b15612036576002905061228b565b612075836040805190810160405280600581526020017f5061706572000000000000000000000000000000000000000000000000000000815250610e11565b80156120bc57506120bb826040805190810160405280600481526020017f526f636b00000000000000000000000000000000000000000000000000000000815250610e11565b5b156120ca576001905061228b565b612109836040805190810160405280600581526020017f5061706572000000000000000000000000000000000000000000000000000000815250610e11565b8015612150575061214f826040805190810160405280600881526020017f53636973736f7273000000000000000000000000000000000000000000000000815250610e11565b5b1561215e576002905061228b565b61219d836040805190810160405280600881526020017f53636973736f7273000000000000000000000000000000000000000000000000815250610e11565b80156121e457506121e3826040805190810160405280600481526020017f526f636b00000000000000000000000000000000000000000000000000000000815250610e11565b5b156121f2576002905061228b565b612231836040805190810160405280600881526020017f53636973736f7273000000000000000000000000000000000000000000000000815250610e11565b80156122785750612277826040805190810160405280600581526020017f5061706572000000000000000000000000000000000000000000000000000000815250610e11565b5b15612286576001905061228b565b600090505b92915050565b6000905050565b600060018214156122b4576000600102600254141590506122c1565b6000600102600354141590505b919050565b828054600181600116156101000203166002900490600052602060002090601f016020900481019282601f1061230757805160ff1916838001178555612335565b82800160010185558215612335579182015b82811115612334578251825591602001919060010190612319565b5b5090506123429190612346565b5090565b61236891905b8082111561236457600081600090555060010161234c565b5090565b9056fea165627a7a72305820df8f7b878fd8085259d2ad94db092be3027884a080ad8f03e8c640cba5842f670029",
  "source": "pragma solidity ^0.5.0;\n\n/**\n* @title RockPaperScissors\n* @author Noah-Vincenz Noeh <noah-vincenz.noeh18@imperial.ac.uk>\n* @notice This smart contract allows two players to play Rock Paper Scissors against each other and the winner gets some Ether as reward.\n*/\ncontract RockPaperScissors {\n  address payable player1;\n  address payable player2;\n  bytes32 hash1;\n  bytes32 hash2;\n  string revealedP1Shape;\n  string revealedP2Shape;\n  int lastWinner;\n\n  modifier notRegisteredYet() {\n    require(msg.sender != player1 && msg.sender != player2);\n    _;\n  }\n\n  modifier isRegistered() {\n    require(msg.sender == player1 || msg.sender == player2);\n    _;\n  }\n\n  modifier hasEnoughEther() {\n    require(msg.value >= 5 ether);\n    _;\n  }\n\n  modifier bothLocked(){\n    require(hash1 != bytes32(0) && hash2 != bytes32(0));\n    _;\n  }\n\n  modifier bothRevealed(){\n    require(!stringsEqual(revealedP1Shape, \"\") && !stringsEqual(revealedP2Shape, \"\"));\n    _;\n  }\n\n  // this is to make sure that a registered player cannot lock / reveal another player's shape\n  modifier correctPlayer(int playerNumber) {\n    require((msg.sender == player1 && playerNumber == 1) || (msg.sender == player2 && playerNumber == 2));\n    _;\n  }\n\n  /**\n  * @notice This function returns a boolean whether the corresponding player has locked their shape.\n  * @param playerNumber The player's number (either 1 or 2).\n  * @return true or false.\n  */\n  function hasLocked(int playerNumber) public view returns (bool) {\n    if (playerNumber == 1)\n      return (hash1 != bytes32(0));\n    else\n      return (hash2 != bytes32(0));\n  }\n\n  /**\n  * @notice This function returns a boolean whether the corresponding player has revealed their shape.\n  * @param playerNumber The player's number (either 1 or 2).\n  * @return true or false.\n  */\n  function hasRevealed(int playerNumber) public view returns (bool) {\n    if (playerNumber == 1)\n      return (!stringsEqual(revealedP1Shape, \"\"));\n    else\n      return (!stringsEqual(revealedP2Shape, \"\"));\n  }\n\n  /**\n  * @notice This function returns the corresponding player's address.\n  * @param playerNumber The player's number (either 1 or 2).\n  * @return The player's address.\n  */\n  function getPlayer(int playerNumber) public view returns (address) {\n    if (playerNumber == 1)\n      return player1;\n    else\n      return player2;\n  }\n\n  /**\n  * @notice This function returns the corresponding player's revealed string.\n  * @param playerNumber The player's number (either 1 or 2).\n  * @return The player's revealed string - \"Rock\", \"Paper\" or \"Scissors\".\n  */\n  function getRevealed(int playerNumber) public view returns (string memory) {\n    if (playerNumber == 1)\n      return revealedP1Shape;\n    else\n      return revealedP2Shape;\n  }\n\n  /**\n  * @notice This function returns the corresponding player's hash.\n  * @param playerNumber The player's number (either 1 or 2).\n  * @return The player's hash.\n  */\n  function getHash(int playerNumber) public view returns (bytes32) {\n    if (playerNumber == 1)\n      return hash1;\n    else\n      return hash2;\n  }\n\n  /**\n  * @notice This function returns the winner of the last game.\n  * @return The player's numbe - either 1 or 2 (or 0 if it was a draw).\n  */\n  function getWinner() public view returns (int) {\n    return lastWinner;\n  }\n\n  /**\n  * @notice This function is called to reset the contract's variable states for a new game.\n  */\n  function resetVariables() public {\n    revealedP1Shape = \"\";\n    revealedP2Shape = \"\";\n    nullifyAddr(player1);\n    nullifyAddr(player2);\n\t\thash1 = bytes32(0);\n\t\thash2 = bytes32(0);\n  }\n\n  /**\n  * @notice This function registers a player address to the game.\n  * @param playerNumber The player's number (either 1 or 2).\n  */\n  function registerPlayer(int playerNumber) public payable notRegisteredYet hasEnoughEther {\n\n    if (playerNumber == 1) {\n      if (player1 == address(0)) {\n          player1 = msg.sender;\n        }\n    } else {\n      if (player2 == address(0)) {\n          player2 = msg.sender;\n      }\n    }\n  }\n\n  // returns bool so we can check if the web UI needs to be updated\n\n  /**\n  * @notice This function locks a player's shape.\n  * @param playerNumber The player's number (either 1 or 2).\n  * @param shape The player's selected shape (\"Rock\", \"Paper\" or \"Scissors\").\n  * @param randomStringToHash The player's selected random string to hash the shape with.\n  */\n  function lockShape(int playerNumber, string memory shape, string memory randomStringToHash) public correctPlayer(playerNumber) isRegistered {\n    // if the player is locking his own shape AND if it is the player's address that calls this AND if the player's hash has not been set\n    if(msg.sender == player1 && hash1 == bytes32(0)) {\n      // XOR random string with shape\n      hash1 = keccak256(bytes(shape)) ^ keccak256(bytes(randomStringToHash));\n    }\n    if(msg.sender == player2 && hash2 == bytes32(0)) {\n      hash2 = keccak256(bytes(shape)) ^ keccak256(bytes(randomStringToHash));\n    }\n  }\n\n  /**\n  * @notice This function reveals a player's shape. This checks whether the stored hash equals the new given hash (consisting of the currently selected shape and string)\n  * @param playerNumber The player's number (either 1 or 2).\n  * @param shape The player's selected shape (\"Rock\", \"Paper\" or \"Scissors\").\n  * @param randomStringToHash The player's selected random string to hash the shape with.\n  */\n  function revealShape(int playerNumber, string memory shape, string memory randomStringToHash) public isRegistered bothLocked correctPlayer(playerNumber) {\n    bytes32 tempHash = keccak256(bytes(shape)) ^ keccak256(bytes(randomStringToHash));\n\n\t\tif(msg.sender == player1){\n\t\t\tif(tempHash == hash1){\n\t\t\t\tif(stringsEqual(shape, \"Rock\")) {\n\t\t\t\t\trevealedP1Shape = \"Rock\";\n\t\t\t\t}\n        if(stringsEqual(shape, \"Paper\")) {\n          revealedP1Shape = \"Paper\";\n\t\t\t\t}\n        if(stringsEqual(shape, \"Scissors\")) {\n          revealedP1Shape = \"Scissors\";\n\t\t\t\t}\n        // shape is going to be one of the above\n\t\t\t}\n\t\t}\n    if(msg.sender == player2){\n\t\t\tif(tempHash == hash2){\n\t\t\t\tif(stringsEqual(shape, \"Rock\")) {\n\t\t\t\t\trevealedP2Shape = \"Rock\";\n\t\t\t\t}\n        if(stringsEqual(shape, \"Paper\")) {\n          revealedP2Shape = \"Paper\";\n\t\t\t\t}\n        if(stringsEqual(shape, \"Scissors\")) {\n          revealedP2Shape = \"Scissors\";\n\t\t\t\t}\n\t\t\t}\n\t\t}\n\t}\n\n  /**\n  * @notice This function computes the winner shape from two shapes and returns 1 if player 1 wins, 2 if player 2 wins and 0 if it is a draw.\n  * @param revealedP1 Player 1's revealed shape.\n  * @param revealedP2 Player 2's revealed shape.\n  * @return 1, 2 or 0 depending on which player won the game (0 in the case of a draw).\n  */\n  function computeWinner(string memory revealedP1, string memory revealedP2) pure public returns (int) {\n\n    if (stringsEqual(revealedP1, revealedP2)) return 0;\n    else if (stringsEqual(revealedP1, \"Rock\") && stringsEqual(revealedP2, \"Scissors\")) return 1;\n    else if (stringsEqual(revealedP1, \"Rock\") && stringsEqual(revealedP2, \"Paper\")) return 2;\n    else if (stringsEqual(revealedP1, \"Paper\") && stringsEqual(revealedP2, \"Rock\")) return 1;\n    else if (stringsEqual(revealedP1, \"Paper\") && stringsEqual(revealedP2, \"Scissors\")) return 2;\n    else if (stringsEqual(revealedP1, \"Scissors\") && stringsEqual(revealedP2, \"Rock\")) return 2;\n    else if (stringsEqual(revealedP1, \"Scissors\") && stringsEqual(revealedP2, \"Paper\")) return 1;\n    else return 0;\n\n  }\n\n  /**\n  * @notice This function is called when both players have locked and revealed their shapes and the 'Distribute Rewards' button in the UI is pressed.\n  */\n  function play() public payable bothLocked bothRevealed isRegistered {\n\n    int winner = computeWinner(revealedP1Shape, revealedP2Shape);\n\n    if (winner == 1) {\n\n      player1.transfer(10 ether);\n\n    } else if (winner == 2) {\n\n      player2.transfer(10 ether);\n\n    } else {\n      // in the case of a draw, send half money to both parties\n      player1.transfer(5 ether);\n\t\t\tplayer2.transfer(5 ether);\n\n    }\n    lastWinner = winner;\n    resetVariables();\n\n  }\n\n  /**\n  * @notice This function sets the specified address to 0.\n  * @param addr The address to be nullified.\n  */\n  function nullifyAddr(address addr) public pure {\n    addr = address(0);\n  }\n\n  /**\n  * @notice This function compares two strings (memory) and checks whether these are equal and returns the corresponding boolean.\n  * @param stringA First string to compare with.\n  * @param stringB Second string to compare with.\n  * @return true or false depending on whether the two strings are equal.\n  */\n  function stringsEqual(string memory stringA, string memory stringB) public pure returns (bool) {\n    bytes memory a = bytes(stringA);\n    bytes memory b = bytes(stringB);\n\n    if (a.length != b.length)\n        return false;\n\n    for (uint i = 0; i < a.length; i ++)\n        if (a[i] != b[i])\n            return false;\n        return true;\n  }\n\n}\n",
  "sourcePath": "/Users/noah-vincenznoeh/Desktop/CW2/contracts/RockPaperScissors.sol",
  "compiler": {
    "name": "solc",
    "version": "0.5.0+commit.1d4f565a.Emscripten.clang"
  },
  "schemaVersion": "3.0.1",
  "updatedAt": "2019-02-12T22:32:41.973Z",
  "devdoc": {
    "author": "Noah-Vincenz Noeh <noah-vincenz.noeh18@imperial.ac.uk>",
    "methods": {
      "computeWinner(string,string)": {
        "params": {
          "revealedP1": "Player 1's revealed shape.",
          "revealedP2": "Player 2's revealed shape."
        },
        "return": "1, 2 or 0 depending on which player won the game (0 in the case of a draw)."
      },
      "getHash(int256)": {
        "params": {
          "playerNumber": "The player's number (either 1 or 2)."
        },
        "return": "The player's hash."
      },
      "getPlayer(int256)": {
        "params": {
          "playerNumber": "The player's number (either 1 or 2)."
        },
        "return": "The player's address."
      },
      "getRevealed(int256)": {
        "params": {
          "playerNumber": "The player's number (either 1 or 2)."
        },
        "return": "The player's revealed string - \"Rock\", \"Paper\" or \"Scissors\"."
      },
      "getWinner()": {
        "return": "The player's numbe - either 1 or 2 (or 0 if it was a draw)."
      },
      "hasLocked(int256)": {
        "params": {
          "playerNumber": "The player's number (either 1 or 2)."
        },
        "return": "true or false."
      },
      "hasRevealed(int256)": {
        "params": {
          "playerNumber": "The player's number (either 1 or 2)."
        },
        "return": "true or false."
      },
      "lockShape(int256,string,string)": {
        "params": {
          "playerNumber": "The player's number (either 1 or 2).",
          "randomStringToHash": "The player's selected random string to hash the shape with.",
          "shape": "The player's selected shape (\"Rock\", \"Paper\" or \"Scissors\")."
        }
      },
      "nullifyAddr(address)": {
        "params": {
          "addr": "The address to be nullified."
        }
      },
      "registerPlayer(int256)": {
        "params": {
          "playerNumber": "The player's number (either 1 or 2)."
        }
      },
      "revealShape(int256,string,string)": {
        "params": {
          "playerNumber": "The player's number (either 1 or 2).",
          "randomStringToHash": "The player's selected random string to hash the shape with.",
          "shape": "The player's selected shape (\"Rock\", \"Paper\" or \"Scissors\")."
        }
      },
      "stringsEqual(string,string)": {
        "params": {
          "stringA": "First string to compare with.",
          "stringB": "Second string to compare with."
        },
        "return": "true or false depending on whether the two strings are equal."
      }
    },
    "title": "RockPaperScissors"
  },
  "userdoc": {
    "methods": {
      "computeWinner(string,string)": {
        "notice": "This function computes the winner shape from two shapes and returns 1 if player 1 wins, 2 if player 2 wins and 0 if it is a draw."
      },
      "getHash(int256)": {
        "notice": "This function returns the corresponding player's hash."
      },
      "getPlayer(int256)": {
        "notice": "This function returns the corresponding player's address."
      },
      "getRevealed(int256)": {
        "notice": "This function returns the corresponding player's revealed string."
      },
      "getWinner()": {
        "notice": "This function returns the winner of the last game."
      },
      "hasLocked(int256)": {
        "notice": "This function returns a boolean whether the corresponding player has locked their shape."
      },
      "hasRevealed(int256)": {
        "notice": "This function returns a boolean whether the corresponding player has revealed their shape."
      },
      "lockShape(int256,string,string)": {
        "notice": "This function locks a player's shape."
      },
      "nullifyAddr(address)": {
        "notice": "This function sets the specified address to 0."
      },
      "play()": {
        "notice": "This function is called when both players have locked and revealed their shapes and the 'Distribute Rewards' button in the UI is pressed."
      },
      "registerPlayer(int256)": {
        "notice": "This function registers a player address to the game."
      },
      "resetVariables()": {
        "notice": "This function is called to reset the contract's variable states for a new game."
      },
      "revealShape(int256,string,string)": {
        "notice": "This function reveals a player's shape. This checks whether the stored hash equals the new given hash (consisting of the currently selected shape and string)"
      },
      "stringsEqual(string,string)": {
        "notice": "This function compares two strings (memory) and checks whether these are equal and returns the corresponding boolean."
      }
    },
    "notice": "This smart contract allows two players to play Rock Paper Scissors against each other and the winner gets some Ether as reward."
  }
}