{
  "contractName": "RockPaperScissors",
  "abi": [
    {
      "constant": true,
      "inputs": [
        {
          "name": "playerNumber",
          "type": "int256"
        }
      ],
      "name": "hasLocked",
      "outputs": [
        {
          "name": "",
          "type": "bool"
        }
      ],
      "payable": false,
      "stateMutability": "view",
      "type": "function",
      "signature": "0xaf88323f"
    },
    {
      "constant": true,
      "inputs": [
        {
          "name": "playerNumber",
          "type": "int256"
        }
      ],
      "name": "hasRevealed",
      "outputs": [
        {
          "name": "",
          "type": "bool"
        }
      ],
      "payable": false,
      "stateMutability": "view",
      "type": "function",
      "signature": "0x6d075586"
    },
    {
      "constant": true,
      "inputs": [
        {
          "name": "playerNumber",
          "type": "int256"
        }
      ],
      "name": "getAddress",
      "outputs": [
        {
          "name": "",
          "type": "address"
        }
      ],
      "payable": false,
      "stateMutability": "view",
      "type": "function",
      "signature": "0xf9c40920"
    },
    {
      "constant": true,
      "inputs": [
        {
          "name": "playerNumber",
          "type": "int256"
        }
      ],
      "name": "getRevealed",
      "outputs": [
        {
          "name": "",
          "type": "string"
        }
      ],
      "payable": false,
      "stateMutability": "view",
      "type": "function",
      "signature": "0x22327e73"
    },
    {
      "constant": true,
      "inputs": [
        {
          "name": "playerNumber",
          "type": "int256"
        }
      ],
      "name": "getHash",
      "outputs": [
        {
          "name": "",
          "type": "bytes32"
        }
      ],
      "payable": false,
      "stateMutability": "view",
      "type": "function",
      "signature": "0x595cb289"
    },
    {
      "constant": true,
      "inputs": [],
      "name": "getWinner",
      "outputs": [
        {
          "name": "",
          "type": "int256"
        }
      ],
      "payable": false,
      "stateMutability": "view",
      "type": "function",
      "signature": "0x8e7ea5b2"
    },
    {
      "constant": false,
      "inputs": [],
      "name": "resetVariables",
      "outputs": [],
      "payable": false,
      "stateMutability": "nonpayable",
      "type": "function",
      "signature": "0x3fbc9801"
    },
    {
      "constant": false,
      "inputs": [
        {
          "name": "playerNumber",
          "type": "int256"
        }
      ],
      "name": "registerPlayer",
      "outputs": [],
      "payable": true,
      "stateMutability": "payable",
      "type": "function",
      "signature": "0x12c12c2f"
    },
    {
      "constant": false,
      "inputs": [
        {
          "name": "playerNumber",
          "type": "int256"
        },
        {
          "name": "shape",
          "type": "string"
        },
        {
          "name": "randomStringToHash",
          "type": "string"
        }
      ],
      "name": "lockShape",
      "outputs": [],
      "payable": false,
      "stateMutability": "nonpayable",
      "type": "function",
      "signature": "0x083be753"
    },
    {
      "constant": false,
      "inputs": [
        {
          "name": "playerNumber",
          "type": "int256"
        },
        {
          "name": "shape",
          "type": "string"
        },
        {
          "name": "randomStringToHash",
          "type": "string"
        }
      ],
      "name": "revealShape",
      "outputs": [],
      "payable": false,
      "stateMutability": "nonpayable",
      "type": "function",
      "signature": "0x7381f8dd"
    },
    {
      "constant": true,
      "inputs": [
        {
          "name": "revealedP1",
          "type": "string"
        },
        {
          "name": "revealedP2",
          "type": "string"
        }
      ],
      "name": "computeWinner",
      "outputs": [
        {
          "name": "",
          "type": "int256"
        }
      ],
      "payable": false,
      "stateMutability": "pure",
      "type": "function",
      "signature": "0x9c839874"
    },
    {
      "constant": false,
      "inputs": [],
      "name": "play",
      "outputs": [],
      "payable": true,
      "stateMutability": "payable",
      "type": "function",
      "signature": "0x93e84cd9"
    },
    {
      "constant": true,
      "inputs": [
        {
          "name": "stringA",
          "type": "string"
        },
        {
          "name": "stringB",
          "type": "string"
        }
      ],
      "name": "stringsEqual",
      "outputs": [
        {
          "name": "",
          "type": "bool"
        }
      ],
      "payable": false,
      "stateMutability": "pure",
      "type": "function",
      "signature": "0x13d19950"
    }
  ],
  "bytecode": "0x608060405234801561001057600080fd5b50612362806100206000396000f3fe6080604052600436106100c5576000357c0100000000000000000000000000000000000000000000000000000000900463ffffffff168063083be753146100ca57806312c12c2f1461023357806313d199501461026157806322327e73146103d85780633fbc98011461048c578063595cb289146104a35780636d075586146104f25780637381f8dd146105455780638e7ea5b2146106ae57806393e84cd9146106d95780639c839874146106e3578063af88323f14610856578063f9c40920146108a9575b600080fd5b3480156100d657600080fd5b50610231600480360360608110156100ed57600080fd5b81019080803590602001909291908035906020019064010000000081111561011457600080fd5b82018360208201111561012657600080fd5b8035906020019184600183028401116401000000008311171561014857600080fd5b91908080601f016020809104026020016040519081016040528093929190818152602001838380828437600081840152601f19601f820116905080830192505050505050509192919290803590602001906401000000008111156101ab57600080fd5b8201836020820111156101bd57600080fd5b803590602001918460018302840111640100000000831117156101df57600080fd5b91908080601f016020809104026020016040519081016040528093929190818152602001838380828437600081840152601f19601f820116905080830192505050505050509192919290505050610924565b005b61025f6004803603602081101561024957600080fd5b8101908080359060200190929190505050610ba6565b005b34801561026d57600080fd5b506103be6004803603604081101561028457600080fd5b81019080803590602001906401000000008111156102a157600080fd5b8201836020820111156102b357600080fd5b803590602001918460018302840111640100000000831117156102d557600080fd5b91908080601f016020809104026020016040519081016040528093929190818152602001838380828437600081840152601f19601f8201169050808301925050505050505091929192908035906020019064010000000081111561033857600080fd5b82018360208201111561034a57600080fd5b8035906020019184600183028401116401000000008311171561036c57600080fd5b91908080601f016020809104026020016040519081016040528093929190818152602001838380828437600081840152601f19601f820116905080830192505050505050509192919290505050610db5565b604051808215151515815260200191505060405180910390f35b3480156103e457600080fd5b50610411600480360360208110156103fb57600080fd5b8101908080359060200190929190505050610f0a565b6040518080602001828103825283818151815260200191508051906020019080838360005b83811015610451578082015181840152602081019050610436565b50505050905090810190601f16801561047e5780820380516001836020036101000a031916815260200191505b509250505060405180910390f35b34801561049857600080fd5b506104a161105a565b005b3480156104af57600080fd5b506104dc600480360360208110156104c657600080fd5b8101908080359060200190929190505050611143565b6040518082815260200191505060405180910390f35b3480156104fe57600080fd5b5061052b6004803603602081101561051557600080fd5b8101908080359060200190929190505050611163565b604051808215151515815260200191505060405180910390f35b34801561055157600080fd5b506106ac6004803603606081101561056857600080fd5b81019080803590602001909291908035906020019064010000000081111561058f57600080fd5b8201836020820111156105a157600080fd5b803590602001918460018302840111640100000000831117156105c357600080fd5b91908080601f016020809104026020016040519081016040528093929190818152602001838380828437600081840152601f19601f8201169050808301925050505050505091929192908035906020019064010000000081111561062657600080fd5b82018360208201111561063857600080fd5b8035906020019184600183028401116401000000008311171561065a57600080fd5b91908080601f016020809104026020016040519081016040528093929190818152602001838380828437600081840152601f19601f8201169050808301925050505050505091929192905050506112e7565b005b3480156106ba57600080fd5b506106c36118d2565b6040518082815260200191505060405180910390f35b6106e16118dc565b005b3480156106ef57600080fd5b506108406004803603604081101561070657600080fd5b810190808035906020019064010000000081111561072357600080fd5b82018360208201111561073557600080fd5b8035906020019184600183028401116401000000008311171561075757600080fd5b91908080601f016020809104026020016040519081016040528093929190818152602001838380828437600081840152601f19601f820116905080830192505050505050509192919290803590602001906401000000008111156107ba57600080fd5b8201836020820111156107cc57600080fd5b803590602001918460018302840111640100000000831117156107ee57600080fd5b91908080601f016020809104026020016040519081016040528093929190818152602001838380828437600081840152601f19601f820116905080830192505050505050509192919290505050611e67565b6040518082815260200191505060405180910390f35b34801561086257600080fd5b5061088f6004803603602081101561087957600080fd5b8101908080359060200190929190505050612204565b604051808215151515815260200191505060405180910390f35b3480156108b557600080fd5b506108e2600480360360208110156108cc57600080fd5b8101908080359060200190929190505050612232565b604051808273ffffffffffffffffffffffffffffffffffffffff1673ffffffffffffffffffffffffffffffffffffffff16815260200191505060405180910390f35b826000809054906101000a900473ffffffffffffffffffffffffffffffffffffffff1673ffffffffffffffffffffffffffffffffffffffff163373ffffffffffffffffffffffffffffffffffffffff161480156109815750600181145b806109e55750600160009054906101000a900473ffffffffffffffffffffffffffffffffffffffff1673ffffffffffffffffffffffffffffffffffffffff163373ffffffffffffffffffffffffffffffffffffffff161480156109e45750600281145b5b15156109f057600080fd5b6000809054906101000a900473ffffffffffffffffffffffffffffffffffffffff1673ffffffffffffffffffffffffffffffffffffffff163373ffffffffffffffffffffffffffffffffffffffff161480610a985750600160009054906101000a900473ffffffffffffffffffffffffffffffffffffffff1673ffffffffffffffffffffffffffffffffffffffff163373ffffffffffffffffffffffffffffffffffffffff16145b1515610aa357600080fd5b6000809054906101000a900473ffffffffffffffffffffffffffffffffffffffff1673ffffffffffffffffffffffffffffffffffffffff163373ffffffffffffffffffffffffffffffffffffffff16148015610b0457506000600102600254145b15610b215781805190602001208380519060200120186002819055505b600160009054906101000a900473ffffffffffffffffffffffffffffffffffffffff1673ffffffffffffffffffffffffffffffffffffffff163373ffffffffffffffffffffffffffffffffffffffff16148015610b8357506000600102600354145b15610ba05781805190602001208380519060200120186003819055505b50505050565b6000809054906101000a900473ffffffffffffffffffffffffffffffffffffffff1673ffffffffffffffffffffffffffffffffffffffff163373ffffffffffffffffffffffffffffffffffffffff1614158015610c515750600160009054906101000a900473ffffffffffffffffffffffffffffffffffffffff1673ffffffffffffffffffffffffffffffffffffffff163373ffffffffffffffffffffffffffffffffffffffff1614155b1515610c5c57600080fd5b674563918244f400003410151515610c7357600080fd5b6001811415610d1857600073ffffffffffffffffffffffffffffffffffffffff166000809054906101000a900473ffffffffffffffffffffffffffffffffffffffff1673ffffffffffffffffffffffffffffffffffffffff161415610d1357336000806101000a81548173ffffffffffffffffffffffffffffffffffffffff021916908373ffffffffffffffffffffffffffffffffffffffff1602179055505b610db2565b600073ffffffffffffffffffffffffffffffffffffffff16600160009054906101000a900473ffffffffffffffffffffffffffffffffffffffff1673ffffffffffffffffffffffffffffffffffffffff161415610db15733600160006101000a81548173ffffffffffffffffffffffffffffffffffffffff021916908373ffffffffffffffffffffffffffffffffffffffff1602179055505b5b50565b60006060839050606083905080518251141515610dd757600092505050610f04565b60008090505b8251811015610efc578181815181101515610df457fe5b9060200101517f010000000000000000000000000000000000000000000000000000000000000090047f0100000000000000000000000000000000000000000000000000000000000000027effffffffffffffffffffffffffffffffffffffffffffffffffffffffffffff19168382815181101515610e6f57fe5b9060200101517f010000000000000000000000000000000000000000000000000000000000000090047f0100000000000000000000000000000000000000000000000000000000000000027effffffffffffffffffffffffffffffffffffffffffffffffffffffffffffff1916141515610eef5760009350505050610f04565b8080600101915050610ddd565b506001925050505b92915050565b60606001821415610fb75760048054600181600116156101000203166002900480601f016020809104026020016040519081016040528092919081815260200182805460018160011615610100020316600290048015610fab5780601f10610f8057610100808354040283529160200191610fab565b820191906000526020600020905b815481529060010190602001808311610f8e57829003601f168201915b50505050509050611055565b60058054600181600116156101000203166002900480601f01602080910402602001604051908101604052809291908181526020018280546001816001161561010002031660029004801561104d5780601f106110225761010080835404028352916020019161104d565b820191906000526020600020905b81548152906001019060200180831161103057829003601f168201915b505050505090505b919050565b602060405190810160405280600081525060049080519060200190611080929190612291565b506020604051908101604052806000815250600590805190602001906110a7929190612291565b5060008060006101000a81548173ffffffffffffffffffffffffffffffffffffffff021916908373ffffffffffffffffffffffffffffffffffffffff1602179055506000600160006101000a81548173ffffffffffffffffffffffffffffffffffffffff021916908373ffffffffffffffffffffffffffffffffffffffff16021790555060006001026002819055506000600102600381905550565b6000600182141561115857600254905061115e565b60035490505b919050565b6000600182141561122a5761122260048054600181600116156101000203166002900480601f0160208091040260200160405190810160405280929190818152602001828054600181600116156101000203166002900480156112075780601f106111dc57610100808354040283529160200191611207565b820191906000526020600020905b8154815290600101906020018083116111ea57829003601f168201915b50505050506020604051908101604052806000815250610db5565b1590506112e2565b6112de60058054600181600116156101000203166002900480601f0160208091040260200160405190810160405280929190818152602001828054600181600116156101000203166002900480156112c35780601f10611298576101008083540402835291602001916112c3565b820191906000526020600020905b8154815290600101906020018083116112a657829003601f168201915b50505050506020604051908101604052806000815250610db5565b1590505b919050565b6000809054906101000a900473ffffffffffffffffffffffffffffffffffffffff1673ffffffffffffffffffffffffffffffffffffffff163373ffffffffffffffffffffffffffffffffffffffff16148061138f5750600160009054906101000a900473ffffffffffffffffffffffffffffffffffffffff1673ffffffffffffffffffffffffffffffffffffffff163373ffffffffffffffffffffffffffffffffffffffff16145b151561139a57600080fd5b6000600102600254141580156113b65750600060010260035414155b15156113c157600080fd5b826000809054906101000a900473ffffffffffffffffffffffffffffffffffffffff1673ffffffffffffffffffffffffffffffffffffffff163373ffffffffffffffffffffffffffffffffffffffff1614801561141e5750600181145b806114825750600160009054906101000a900473ffffffffffffffffffffffffffffffffffffffff1673ffffffffffffffffffffffffffffffffffffffff163373ffffffffffffffffffffffffffffffffffffffff161480156114815750600281145b5b151561148d57600080fd5b6000828051906020012084805190602001201890506000809054906101000a900473ffffffffffffffffffffffffffffffffffffffff1673ffffffffffffffffffffffffffffffffffffffff163373ffffffffffffffffffffffffffffffffffffffff1614156116b6576002548114156116b557611540846040805190810160405280600481526020017f526f636b00000000000000000000000000000000000000000000000000000000815250610db5565b15611592576040805190810160405280600481526020017f526f636b0000000000000000000000000000000000000000000000000000000081525060049080519060200190611590929190612291565b505b6115d1846040805190810160405280600581526020017f5061706572000000000000000000000000000000000000000000000000000000815250610db5565b15611623576040805190810160405280600581526020017f506170657200000000000000000000000000000000000000000000000000000081525060049080519060200190611621929190612291565b505b611662846040805190810160405280600881526020017f53636973736f7273000000000000000000000000000000000000000000000000815250610db5565b156116b4576040805190810160405280600881526020017f53636973736f7273000000000000000000000000000000000000000000000000815250600490805190602001906116b2929190612291565b505b5b5b600160009054906101000a900473ffffffffffffffffffffffffffffffffffffffff1673ffffffffffffffffffffffffffffffffffffffff163373ffffffffffffffffffffffffffffffffffffffff1614156118cb576003548114156118ca57611755846040805190810160405280600481526020017f526f636b00000000000000000000000000000000000000000000000000000000815250610db5565b156117a7576040805190810160405280600481526020017f526f636b00000000000000000000000000000000000000000000000000000000815250600590805190602001906117a5929190612291565b505b6117e6846040805190810160405280600581526020017f5061706572000000000000000000000000000000000000000000000000000000815250610db5565b15611838576040805190810160405280600581526020017f506170657200000000000000000000000000000000000000000000000000000081525060059080519060200190611836929190612291565b505b611877846040805190810160405280600881526020017f53636973736f7273000000000000000000000000000000000000000000000000815250610db5565b156118c9576040805190810160405280600881526020017f53636973736f7273000000000000000000000000000000000000000000000000815250600590805190602001906118c7929190612291565b505b5b5b5050505050565b6000600654905090565b6000600102600254141580156118f85750600060010260035414155b151561190357600080fd5b6119b760048054600181600116156101000203166002900480601f01602080910402602001604051908101604052809291908181526020018280546001816001161561010002031660029004801561199c5780601f106119715761010080835404028352916020019161199c565b820191906000526020600020905b81548152906001019060200180831161197f57829003601f168201915b50505050506020604051908101604052806000815250610db5565b158015611a755750611a7360058054600181600116156101000203166002900480601f016020809104026020016040519081016040528092919081815260200182805460018160011615610100020316600290048015611a585780601f10611a2d57610100808354040283529160200191611a58565b820191906000526020600020905b815481529060010190602001808311611a3b57829003601f168201915b50505050506020604051908101604052806000815250610db5565b155b1515611a8057600080fd5b6000809054906101000a900473ffffffffffffffffffffffffffffffffffffffff1673ffffffffffffffffffffffffffffffffffffffff163373ffffffffffffffffffffffffffffffffffffffff161480611b285750600160009054906101000a900473ffffffffffffffffffffffffffffffffffffffff1673ffffffffffffffffffffffffffffffffffffffff163373ffffffffffffffffffffffffffffffffffffffff16145b1515611b3357600080fd5b6000611c7360048054600181600116156101000203166002900480601f016020809104026020016040519081016040528092919081815260200182805460018160011615610100020316600290048015611bce5780601f10611ba357610100808354040283529160200191611bce565b820191906000526020600020905b815481529060010190602001808311611bb157829003601f168201915b505050505060058054600181600116156101000203166002900480601f016020809104026020016040519081016040528092919081815260200182805460018160011615610100020316600290048015611c695780601f10611c3e57610100808354040283529160200191611c69565b820191906000526020600020905b815481529060010190602001808311611c4c57829003601f168201915b5050505050611e67565b90506001811415611cf3576000809054906101000a900473ffffffffffffffffffffffffffffffffffffffff1673ffffffffffffffffffffffffffffffffffffffff166108fc678ac7230489e800009081150290604051600060405180830381858888f19350505050158015611ced573d6000803e3d6000fd5b50611e55565b6002811415611d7257600160009054906101000a900473ffffffffffffffffffffffffffffffffffffffff1673ffffffffffffffffffffffffffffffffffffffff166108fc678ac7230489e800009081150290604051600060405180830381858888f19350505050158015611d6c573d6000803e3d6000fd5b50611e54565b6000809054906101000a900473ffffffffffffffffffffffffffffffffffffffff1673ffffffffffffffffffffffffffffffffffffffff166108fc674563918244f400009081150290604051600060405180830381858888f19350505050158015611de1573d6000803e3d6000fd5b50600160009054906101000a900473ffffffffffffffffffffffffffffffffffffffff1673ffffffffffffffffffffffffffffffffffffffff166108fc674563918244f400009081150290604051600060405180830381858888f19350505050158015611e52573d6000803e3d6000fd5b505b5b80600681905550611e6461105a565b50565b6000611e738383610db5565b15611e8157600090506121fe565b611ec0836040805190810160405280600481526020017f526f636b00000000000000000000000000000000000000000000000000000000815250610db5565b8015611f075750611f06826040805190810160405280600881526020017f53636973736f7273000000000000000000000000000000000000000000000000815250610db5565b5b15611f1557600190506121fe565b611f54836040805190810160405280600481526020017f526f636b00000000000000000000000000000000000000000000000000000000815250610db5565b8015611f9b5750611f9a826040805190810160405280600581526020017f5061706572000000000000000000000000000000000000000000000000000000815250610db5565b5b15611fa957600290506121fe565b611fe8836040805190810160405280600581526020017f5061706572000000000000000000000000000000000000000000000000000000815250610db5565b801561202f575061202e826040805190810160405280600481526020017f526f636b00000000000000000000000000000000000000000000000000000000815250610db5565b5b1561203d57600190506121fe565b61207c836040805190810160405280600581526020017f5061706572000000000000000000000000000000000000000000000000000000815250610db5565b80156120c357506120c2826040805190810160405280600881526020017f53636973736f7273000000000000000000000000000000000000000000000000815250610db5565b5b156120d157600290506121fe565b612110836040805190810160405280600881526020017f53636973736f7273000000000000000000000000000000000000000000000000815250610db5565b80156121575750612156826040805190810160405280600481526020017f526f636b00000000000000000000000000000000000000000000000000000000815250610db5565b5b1561216557600290506121fe565b6121a4836040805190810160405280600881526020017f53636973736f7273000000000000000000000000000000000000000000000000815250610db5565b80156121eb57506121ea826040805190810160405280600581526020017f5061706572000000000000000000000000000000000000000000000000000000815250610db5565b5b156121f957600190506121fe565b600090505b92915050565b600060018214156122205760006001026002541415905061222d565b6000600102600354141590505b919050565b60006001821415612266576000809054906101000a900473ffffffffffffffffffffffffffffffffffffffff16905061228c565b600160009054906101000a900473ffffffffffffffffffffffffffffffffffffffff1690505b919050565b828054600181600116156101000203166002900490600052602060002090601f016020900481019282601f106122d257805160ff1916838001178555612300565b82800160010185558215612300579182015b828111156122ff5782518255916020019190600101906122e4565b5b50905061230d9190612311565b5090565b61233391905b8082111561232f576000816000905550600101612317565b5090565b9056fea165627a7a723058200da8b8fcc8e44126831a8fee9276caa6165ee2b401361b921dfa034c084dde7c0029",
  "source": "pragma solidity ^0.5.0;\n\n/**\n* @title RockPaperScissors\n* @author Noah-Vincenz Noeh <noah-vincenz.noeh18@imperial.ac.uk>\n* @notice This smart contract allows two players to play Rock Paper Scissors against each other and the winner gets some Ether as reward.\n*/\ncontract RockPaperScissors {\n  address payable player1;\n  address payable player2;\n  bytes32 hash1;\n  bytes32 hash2;\n  string revealedP1Shape;\n  string revealedP2Shape;\n  int lastWinner;\n\n  modifier notRegisteredYet() {\n    require(msg.sender != player1 && msg.sender != player2);\n    _;\n  }\n\n  modifier isRegistered() {\n    require(msg.sender == player1 || msg.sender == player2);\n    _;\n  }\n\n  modifier hasEnoughEther() {\n    require(msg.value >= 5 ether);\n    _;\n  }\n\n  modifier bothLocked(){\n    require(hash1 != bytes32(0) && hash2 != bytes32(0));\n    _;\n  }\n\n  modifier bothRevealed(){\n    require(!stringsEqual(revealedP1Shape, \"\") && !stringsEqual(revealedP2Shape, \"\"));\n    _;\n  }\n\n  // this is to make sure that a registered player cannot lock / reveal another player's shape\n  modifier correctPlayer(int playerNumber) {\n    require((msg.sender == player1 && playerNumber == 1) || (msg.sender == player2 && playerNumber == 2));\n    _;\n  }\n\n  /**\n  * @notice This function returns a boolean whether the corresponding player has locked their shape.\n  * @param playerNumber The player's number (either 1 or 2).\n  * @return true or false.\n  */\n  function hasLocked(int playerNumber) public view returns (bool) {\n    if (playerNumber == 1)\n      return (hash1 != bytes32(0));\n    else\n      return (hash2 != bytes32(0));\n  }\n\n  /**\n  * @notice This function returns a boolean whether the corresponding player has revealed their shape.\n  * @param playerNumber The player's number (either 1 or 2).\n  * @return true or false.\n  */\n  function hasRevealed(int playerNumber) public view returns (bool) {\n    if (playerNumber == 1)\n      return (!stringsEqual(revealedP1Shape, \"\"));\n    else\n      return (!stringsEqual(revealedP2Shape, \"\"));\n  }\n\n  /**\n  * @notice This function returns the corresponding player's address.\n  * @param playerNumber The player's number (either 1 or 2).\n  * @return The player's address.\n  */\n  function getAddress(int playerNumber) public view returns (address) {\n    if (playerNumber == 1)\n      return player1;\n    else\n      return player2;\n  }\n\n  /**\n  * @notice This function returns the corresponding player's revealed string.\n  * @param playerNumber The player's number (either 1 or 2).\n  * @return The player's revealed string - \"Rock\", \"Paper\" or \"Scissors\".\n  */\n  function getRevealed(int playerNumber) public view returns (string memory) {\n    if (playerNumber == 1)\n      return revealedP1Shape;\n    else\n      return revealedP2Shape;\n  }\n\n  /**\n  * @notice This function returns the corresponding player's hash.\n  * @param playerNumber The player's number (either 1 or 2).\n  * @return The player's hash.\n  */\n  function getHash(int playerNumber) public view returns (bytes32) {\n    if (playerNumber == 1)\n      return hash1;\n    else\n      return hash2;\n  }\n\n  /**\n  * @notice This function returns the winner of the last game.\n  * @return The player's numbe - either 1 or 2 (or 0 if it was a draw).\n  */\n  function getWinner() public view returns (int) {\n    return lastWinner;\n  }\n\n  /**\n  * @notice This function is called to reset the contract's variable states for a new game.\n  */\n  function resetVariables() public {\n    revealedP1Shape = \"\";\n    revealedP2Shape = \"\";\n    player1 = address(0);\n    //player1 = 0x0000000000000000000000000000000000000000;\n    player2 = address(0);\n    //player2 = 0x0000000000000000000000000000000000000000;\n\t\thash1 = bytes32(0);\n\t\thash2 = bytes32(0);\n  }\n\n  /**\n  * @notice This function registers a player address to the game.\n  * @param playerNumber The player's number (either 1 or 2).\n  */\n  function registerPlayer(int playerNumber) public payable notRegisteredYet hasEnoughEther {\n\n    if (playerNumber == 1) {\n      if (player1 == address(0)) {\n          player1 = msg.sender;\n        }\n    } else {\n      if (player2 == address(0)) {\n          player2 = msg.sender;\n      }\n    }\n  }\n\n  // returns bool so we can check if the web UI needs to be updated\n\n  /**\n  * @notice This function locks a player's shape.\n  * @param playerNumber The player's number (either 1 or 2).\n  * @param shape The player's selected shape (\"Rock\", \"Paper\" or \"Scissors\").\n  * @param randomStringToHash The player's selected random string to hash the shape with.\n  */\n  function lockShape(int playerNumber, string memory shape, string memory randomStringToHash) public correctPlayer(playerNumber) isRegistered {\n    // if the player is locking his own shape AND if it is the player's address that calls this AND if the player's hash has not been set\n    if(msg.sender == player1 && hash1 == bytes32(0)) {\n      // XOR random string with shape\n      hash1 = keccak256(bytes(shape)) ^ keccak256(bytes(randomStringToHash));\n    }\n    if(msg.sender == player2 && hash2 == bytes32(0)) {\n      hash2 = keccak256(bytes(shape)) ^ keccak256(bytes(randomStringToHash));\n    }\n  }\n\n  /**\n  * @notice This function reveals a player's shape. This checks whether the stored hash equals the new given hash (consisting of the currently selected shape and string)\n  * @param playerNumber The player's number (either 1 or 2).\n  * @param shape The player's selected shape (\"Rock\", \"Paper\" or \"Scissors\").\n  * @param randomStringToHash The player's selected random string to hash the shape with.\n  */\n  function revealShape(int playerNumber, string memory shape, string memory randomStringToHash) public isRegistered bothLocked correctPlayer(playerNumber) {\n    bytes32 tempHash = keccak256(bytes(shape)) ^ keccak256(bytes(randomStringToHash));\n\n\t\tif(msg.sender == player1){\n\t\t\tif(tempHash == hash1){\n\t\t\t\tif(stringsEqual(shape, \"Rock\")) {\n\t\t\t\t\trevealedP1Shape = \"Rock\";\n\t\t\t\t}\n        if(stringsEqual(shape, \"Paper\")) {\n          revealedP1Shape = \"Paper\";\n\t\t\t\t}\n        if(stringsEqual(shape, \"Scissors\")) {\n          revealedP1Shape = \"Scissors\";\n\t\t\t\t}\n        // shape is going to be one of the above\n\t\t\t}\n\t\t}\n    if(msg.sender == player2){\n\t\t\tif(tempHash == hash2){\n\t\t\t\tif(stringsEqual(shape, \"Rock\")) {\n\t\t\t\t\trevealedP2Shape = \"Rock\";\n\t\t\t\t}\n        if(stringsEqual(shape, \"Paper\")) {\n          revealedP2Shape = \"Paper\";\n\t\t\t\t}\n        if(stringsEqual(shape, \"Scissors\")) {\n          revealedP2Shape = \"Scissors\";\n\t\t\t\t}\n\t\t\t}\n\t\t}\n\t}\n\n  /**\n  * @notice This function computes the winner shape from two shapes and returns 1 if player 1 wins, 2 if player 2 wins and 0 if it is a draw.\n  * @param revealedP1 Player 1's revealed shape.\n  * @param revealedP2 Player 2's revealed shape.\n  * @return 1, 2 or 0 depending on which player won the game (0 in the case of a draw).\n  */\n  function computeWinner(string memory revealedP1, string memory revealedP2) pure public returns (int) {\n\n    if (stringsEqual(revealedP1, revealedP2)) return 0;\n    else if (stringsEqual(revealedP1, \"Rock\") && stringsEqual(revealedP2, \"Scissors\")) return 1;\n    else if (stringsEqual(revealedP1, \"Rock\") && stringsEqual(revealedP2, \"Paper\")) return 2;\n    else if (stringsEqual(revealedP1, \"Paper\") && stringsEqual(revealedP2, \"Rock\")) return 1;\n    else if (stringsEqual(revealedP1, \"Paper\") && stringsEqual(revealedP2, \"Scissors\")) return 2;\n    else if (stringsEqual(revealedP1, \"Scissors\") && stringsEqual(revealedP2, \"Rock\")) return 2;\n    else if (stringsEqual(revealedP1, \"Scissors\") && stringsEqual(revealedP2, \"Paper\")) return 1;\n    else return 0;\n\n  }\n\n  /**\n  * @notice This function is called when both players have locked and revealed their shapes and the 'Distribute Rewards' button in the UI is pressed.\n  */\n  function play() public payable bothLocked bothRevealed isRegistered {\n\n    int winner = computeWinner(revealedP1Shape, revealedP2Shape);\n\n    if (winner == 1) {\n\n      player1.transfer(10 ether);\n\n    } else if (winner == 2) {\n\n      player2.transfer(10 ether);\n\n    } else {\n      // in the case of a draw, send half money to both parties\n      player1.transfer(5 ether);\n\t\t\tplayer2.transfer(5 ether);\n\n    }\n    lastWinner = winner;\n    resetVariables();\n\n  }\n\n  /**\n  * @notice This function compares two strings (memory) and checks whether these are equal and returns the corresponding boolean.\n  * @param stringA First string to compare with.\n  * @param stringB Second string to compare with.\n  * @return true or false depending on whether the two strings are equal.\n  */\n  function stringsEqual(string memory stringA, string memory stringB) public pure returns (bool) {\n    bytes memory a = bytes(stringA);\n    bytes memory b = bytes(stringB);\n\n    if (a.length != b.length)\n        return false;\n\n    for (uint i = 0; i < a.length; i ++)\n        if (a[i] != b[i])\n            return false;\n        return true;\n  }\n\n}\n",
  "sourcePath": "/Users/noah-vincenznoeh/Desktop/CW2/contracts/RockPaperScissors.sol",
  "compiler": {
    "name": "solc",
    "version": "0.5.0+commit.1d4f565a.Emscripten.clang"
  },
  "schemaVersion": "3.0.1",
  "updatedAt": "2019-02-13T12:59:28.647Z",
  "devdoc": {
    "author": "Noah-Vincenz Noeh <noah-vincenz.noeh18@imperial.ac.uk>",
    "methods": {
      "computeWinner(string,string)": {
        "params": {
          "revealedP1": "Player 1's revealed shape.",
          "revealedP2": "Player 2's revealed shape."
        },
        "return": "1, 2 or 0 depending on which player won the game (0 in the case of a draw)."
      },
      "getAddress(int256)": {
        "params": {
          "playerNumber": "The player's number (either 1 or 2)."
        },
        "return": "The player's address."
      },
      "getHash(int256)": {
        "params": {
          "playerNumber": "The player's number (either 1 or 2)."
        },
        "return": "The player's hash."
      },
      "getRevealed(int256)": {
        "params": {
          "playerNumber": "The player's number (either 1 or 2)."
        },
        "return": "The player's revealed string - \"Rock\", \"Paper\" or \"Scissors\"."
      },
      "getWinner()": {
        "return": "The player's numbe - either 1 or 2 (or 0 if it was a draw)."
      },
      "hasLocked(int256)": {
        "params": {
          "playerNumber": "The player's number (either 1 or 2)."
        },
        "return": "true or false."
      },
      "hasRevealed(int256)": {
        "params": {
          "playerNumber": "The player's number (either 1 or 2)."
        },
        "return": "true or false."
      },
      "lockShape(int256,string,string)": {
        "params": {
          "playerNumber": "The player's number (either 1 or 2).",
          "randomStringToHash": "The player's selected random string to hash the shape with.",
          "shape": "The player's selected shape (\"Rock\", \"Paper\" or \"Scissors\")."
        }
      },
      "registerPlayer(int256)": {
        "params": {
          "playerNumber": "The player's number (either 1 or 2)."
        }
      },
      "revealShape(int256,string,string)": {
        "params": {
          "playerNumber": "The player's number (either 1 or 2).",
          "randomStringToHash": "The player's selected random string to hash the shape with.",
          "shape": "The player's selected shape (\"Rock\", \"Paper\" or \"Scissors\")."
        }
      },
      "stringsEqual(string,string)": {
        "params": {
          "stringA": "First string to compare with.",
          "stringB": "Second string to compare with."
        },
        "return": "true or false depending on whether the two strings are equal."
      }
    },
    "title": "RockPaperScissors"
  },
  "userdoc": {
    "methods": {
      "computeWinner(string,string)": {
        "notice": "This function computes the winner shape from two shapes and returns 1 if player 1 wins, 2 if player 2 wins and 0 if it is a draw."
      },
      "getAddress(int256)": {
        "notice": "This function returns the corresponding player's address."
      },
      "getHash(int256)": {
        "notice": "This function returns the corresponding player's hash."
      },
      "getRevealed(int256)": {
        "notice": "This function returns the corresponding player's revealed string."
      },
      "getWinner()": {
        "notice": "This function returns the winner of the last game."
      },
      "hasLocked(int256)": {
        "notice": "This function returns a boolean whether the corresponding player has locked their shape."
      },
      "hasRevealed(int256)": {
        "notice": "This function returns a boolean whether the corresponding player has revealed their shape."
      },
      "lockShape(int256,string,string)": {
        "notice": "This function locks a player's shape."
      },
      "play()": {
        "notice": "This function is called when both players have locked and revealed their shapes and the 'Distribute Rewards' button in the UI is pressed."
      },
      "registerPlayer(int256)": {
        "notice": "This function registers a player address to the game."
      },
      "resetVariables()": {
        "notice": "This function is called to reset the contract's variable states for a new game."
      },
      "revealShape(int256,string,string)": {
        "notice": "This function reveals a player's shape. This checks whether the stored hash equals the new given hash (consisting of the currently selected shape and string)"
      },
      "stringsEqual(string,string)": {
        "notice": "This function compares two strings (memory) and checks whether these are equal and returns the corresponding boolean."
      }
    },
    "notice": "This smart contract allows two players to play Rock Paper Scissors against each other and the winner gets some Ether as reward."
  }
}