{
  "contractName": "RockPaperScissors",
  "abi": [
    {
      "inputs": [],
      "payable": true,
      "stateMutability": "payable",
      "type": "constructor",
      "signature": "constructor"
    },
    {
      "payable": true,
      "stateMutability": "payable",
      "type": "fallback"
    },
    {
      "constant": true,
      "inputs": [
        {
          "name": "playerNumber",
          "type": "int256"
        }
      ],
      "name": "getPlayer",
      "outputs": [
        {
          "name": "",
          "type": "address"
        }
      ],
      "payable": false,
      "stateMutability": "view",
      "type": "function",
      "signature": "0x4a60f7e6"
    },
    {
      "constant": true,
      "inputs": [
        {
          "name": "playerNumber",
          "type": "int256"
        }
      ],
      "name": "getLocked",
      "outputs": [
        {
          "name": "",
          "type": "bool"
        }
      ],
      "payable": false,
      "stateMutability": "view",
      "type": "function",
      "signature": "0xb1b01cdd"
    },
    {
      "constant": true,
      "inputs": [
        {
          "name": "playerNumber",
          "type": "int256"
        }
      ],
      "name": "isRevealed",
      "outputs": [
        {
          "name": "",
          "type": "bool"
        }
      ],
      "payable": false,
      "stateMutability": "view",
      "type": "function",
      "signature": "0x5f9545de"
    },
    {
      "constant": true,
      "inputs": [
        {
          "name": "playerNumber",
          "type": "int256"
        }
      ],
      "name": "getRevealed",
      "outputs": [
        {
          "name": "",
          "type": "string"
        }
      ],
      "payable": false,
      "stateMutability": "view",
      "type": "function",
      "signature": "0x22327e73"
    },
    {
      "constant": true,
      "inputs": [
        {
          "name": "playerNumber",
          "type": "int256"
        }
      ],
      "name": "getHash",
      "outputs": [
        {
          "name": "",
          "type": "bytes32"
        }
      ],
      "payable": false,
      "stateMutability": "view",
      "type": "function",
      "signature": "0x595cb289"
    },
    {
      "constant": true,
      "inputs": [],
      "name": "getWinner",
      "outputs": [
        {
          "name": "",
          "type": "int256"
        }
      ],
      "payable": false,
      "stateMutability": "view",
      "type": "function",
      "signature": "0x8e7ea5b2"
    },
    {
      "constant": false,
      "inputs": [],
      "name": "resetVariables",
      "outputs": [],
      "payable": false,
      "stateMutability": "nonpayable",
      "type": "function",
      "signature": "0x3fbc9801"
    },
    {
      "constant": false,
      "inputs": [
        {
          "name": "playerNumber",
          "type": "int256"
        }
      ],
      "name": "registerPlayer",
      "outputs": [],
      "payable": true,
      "stateMutability": "payable",
      "type": "function",
      "signature": "0x12c12c2f"
    },
    {
      "constant": false,
      "inputs": [
        {
          "name": "playerNumber",
          "type": "int256"
        },
        {
          "name": "shape",
          "type": "string"
        },
        {
          "name": "randomStringToHash",
          "type": "string"
        }
      ],
      "name": "lockShape",
      "outputs": [
        {
          "name": "",
          "type": "bool"
        }
      ],
      "payable": false,
      "stateMutability": "nonpayable",
      "type": "function",
      "signature": "0x083be753"
    },
    {
      "constant": false,
      "inputs": [
        {
          "name": "playerNumber",
          "type": "int256"
        },
        {
          "name": "shape",
          "type": "string"
        },
        {
          "name": "randomStringToHash",
          "type": "string"
        }
      ],
      "name": "revealShape",
      "outputs": [
        {
          "name": "",
          "type": "int256"
        }
      ],
      "payable": false,
      "stateMutability": "nonpayable",
      "type": "function",
      "signature": "0x7381f8dd"
    },
    {
      "constant": true,
      "inputs": [
        {
          "name": "revealedP1",
          "type": "string"
        },
        {
          "name": "revealedP2",
          "type": "string"
        }
      ],
      "name": "computeWinner",
      "outputs": [
        {
          "name": "",
          "type": "int256"
        }
      ],
      "payable": false,
      "stateMutability": "pure",
      "type": "function",
      "signature": "0x9c839874"
    },
    {
      "constant": false,
      "inputs": [],
      "name": "play",
      "outputs": [
        {
          "name": "",
          "type": "int256"
        }
      ],
      "payable": true,
      "stateMutability": "payable",
      "type": "function",
      "signature": "0x93e84cd9"
    },
    {
      "constant": true,
      "inputs": [
        {
          "name": "addr",
          "type": "address"
        }
      ],
      "name": "nullifyAddr",
      "outputs": [],
      "payable": false,
      "stateMutability": "pure",
      "type": "function",
      "signature": "0x9e8605e5"
    },
    {
      "constant": true,
      "inputs": [
        {
          "name": "_a",
          "type": "string"
        },
        {
          "name": "_b",
          "type": "string"
        }
      ],
      "name": "stringsEqual",
      "outputs": [
        {
          "name": "",
          "type": "bool"
        }
      ],
      "payable": false,
      "stateMutability": "pure",
      "type": "function",
      "signature": "0x13d19950"
    }
  ],
  "bytecode": "0x6080604052612228806100136000396000f3fe6080604052600436106100d0576000357c0100000000000000000000000000000000000000000000000000000000900463ffffffff168063083be753146100d257806312c12c2f1461025357806313d199501461028157806322327e73146103f85780633fbc9801146104ac5780634a60f7e6146104c3578063595cb2891461053e5780635f9545de1461058d5780637381f8dd146105e05780638e7ea5b21461075d57806393e84cd9146107885780639c839874146107a65780639e8605e514610919578063b1b01cdd1461096a575b005b3480156100de57600080fd5b50610239600480360360608110156100f557600080fd5b81019080803590602001909291908035906020019064010000000081111561011c57600080fd5b82018360208201111561012e57600080fd5b8035906020019184600183028401116401000000008311171561015057600080fd5b91908080601f016020809104026020016040519081016040528093929190818152602001838380828437600081840152601f19601f820116905080830192505050505050509192919290803590602001906401000000008111156101b357600080fd5b8201836020820111156101c557600080fd5b803590602001918460018302840111640100000000831117156101e757600080fd5b91908080601f016020809104026020016040519081016040528093929190818152602001838380828437600081840152601f19601f8201169050808301925050505050505091929192905050506109bd565b604051808215151515815260200191505060405180910390f35b61027f6004803603602081101561026957600080fd5b8101908080359060200190929190505050610c58565b005b34801561028d57600080fd5b506103de600480360360408110156102a457600080fd5b81019080803590602001906401000000008111156102c157600080fd5b8201836020820111156102d357600080fd5b803590602001918460018302840111640100000000831117156102f557600080fd5b91908080601f016020809104026020016040519081016040528093929190818152602001838380828437600081840152601f19601f8201169050808301925050505050505091929192908035906020019064010000000081111561035857600080fd5b82018360208201111561036a57600080fd5b8035906020019184600183028401116401000000008311171561038c57600080fd5b91908080601f016020809104026020016040519081016040528093929190818152602001838380828437600081840152601f19601f820116905080830192505050505050509192919290505050610e67565b604051808215151515815260200191505060405180910390f35b34801561040457600080fd5b506104316004803603602081101561041b57600080fd5b8101908080359060200190929190505050610fbc565b6040518080602001828103825283818151815260200191508051906020019080838360005b83811015610471578082015181840152602081019050610456565b50505050905090810190601f16801561049e5780820380516001836020036101000a031916815260200191505b509250505060405180910390f35b3480156104b857600080fd5b506104c161110c565b005b3480156104cf57600080fd5b506104fc600480360360208110156104e657600080fd5b81019080803590602001909291905050506111ee565b604051808273ffffffffffffffffffffffffffffffffffffffff1673ffffffffffffffffffffffffffffffffffffffff16815260200191505060405180910390f35b34801561054a57600080fd5b506105776004803603602081101561056157600080fd5b810190808035906020019092919050505061124d565b6040518082815260200191505060405180910390f35b34801561059957600080fd5b506105c6600480360360208110156105b057600080fd5b810190808035906020019092919050505061126d565b604051808215151515815260200191505060405180910390f35b3480156105ec57600080fd5b506107476004803603606081101561060357600080fd5b81019080803590602001909291908035906020019064010000000081111561062a57600080fd5b82018360208201111561063c57600080fd5b8035906020019184600183028401116401000000008311171561065e57600080fd5b91908080601f016020809104026020016040519081016040528093929190818152602001838380828437600081840152601f19601f820116905080830192505050505050509192919290803590602001906401000000008111156106c157600080fd5b8201836020820111156106d357600080fd5b803590602001918460018302840111640100000000831117156106f557600080fd5b91908080601f016020809104026020016040519081016040528093929190818152602001838380828437600081840152601f19601f8201169050808301925050505050505091929192905050506113f1565b6040518082815260200191505060405180910390f35b34801561076957600080fd5b50610772611a1b565b6040518082815260200191505060405180910390f35b610790611a25565b6040518082815260200191505060405180910390f35b3480156107b257600080fd5b50610903600480360360408110156107c957600080fd5b81019080803590602001906401000000008111156107e657600080fd5b8201836020820111156107f857600080fd5b8035906020019184600183028401116401000000008311171561081a57600080fd5b91908080601f016020809104026020016040519081016040528093929190818152602001838380828437600081840152601f19601f8201169050808301925050505050505091929192908035906020019064010000000081111561087d57600080fd5b82018360208201111561088f57600080fd5b803590602001918460018302840111640100000000831117156108b157600080fd5b91908080601f016020809104026020016040519081016040528093929190818152602001838380828437600081840152601f19601f820116905080830192505050505050509192919290505050611d85565b6040518082815260200191505060405180910390f35b34801561092557600080fd5b506109686004803603602081101561093c57600080fd5b81019080803573ffffffffffffffffffffffffffffffffffffffff169060200190929190505050612122565b005b34801561097657600080fd5b506109a36004803603602081101561098d57600080fd5b8101908080359060200190929190505050612129565b604051808215151515815260200191505060405180910390f35b6000836000809054906101000a900473ffffffffffffffffffffffffffffffffffffffff1673ffffffffffffffffffffffffffffffffffffffff163373ffffffffffffffffffffffffffffffffffffffff16148015610a1c5750600181145b80610a805750600160009054906101000a900473ffffffffffffffffffffffffffffffffffffffff1673ffffffffffffffffffffffffffffffffffffffff163373ffffffffffffffffffffffffffffffffffffffff16148015610a7f5750600281145b5b1515610a8b57600080fd5b6000809054906101000a900473ffffffffffffffffffffffffffffffffffffffff1673ffffffffffffffffffffffffffffffffffffffff163373ffffffffffffffffffffffffffffffffffffffff161480610b335750600160009054906101000a900473ffffffffffffffffffffffffffffffffffffffff1673ffffffffffffffffffffffffffffffffffffffff163373ffffffffffffffffffffffffffffffffffffffff16145b1515610b3e57600080fd5b6000809054906101000a900473ffffffffffffffffffffffffffffffffffffffff1673ffffffffffffffffffffffffffffffffffffffff163373ffffffffffffffffffffffffffffffffffffffff16148015610b9f57506000600102600254145b15610bc457828051906020012084805190602001201860028190555060019150610c50565b600160009054906101000a900473ffffffffffffffffffffffffffffffffffffffff1673ffffffffffffffffffffffffffffffffffffffff163373ffffffffffffffffffffffffffffffffffffffff16148015610c2657506000600102600354145b15610c4b57828051906020012084805190602001201860038190555060019150610c50565b600091505b509392505050565b6000809054906101000a900473ffffffffffffffffffffffffffffffffffffffff1673ffffffffffffffffffffffffffffffffffffffff163373ffffffffffffffffffffffffffffffffffffffff1614158015610d035750600160009054906101000a900473ffffffffffffffffffffffffffffffffffffffff1673ffffffffffffffffffffffffffffffffffffffff163373ffffffffffffffffffffffffffffffffffffffff1614155b1515610d0e57600080fd5b671bc16d674ec800003410151515610d2557600080fd5b6001811415610dca57600073ffffffffffffffffffffffffffffffffffffffff166000809054906101000a900473ffffffffffffffffffffffffffffffffffffffff1673ffffffffffffffffffffffffffffffffffffffff161415610dc557336000806101000a81548173ffffffffffffffffffffffffffffffffffffffff021916908373ffffffffffffffffffffffffffffffffffffffff1602179055505b610e64565b600073ffffffffffffffffffffffffffffffffffffffff16600160009054906101000a900473ffffffffffffffffffffffffffffffffffffffff1673ffffffffffffffffffffffffffffffffffffffff161415610e635733600160006101000a81548173ffffffffffffffffffffffffffffffffffffffff021916908373ffffffffffffffffffffffffffffffffffffffff1602179055505b5b50565b60006060839050606083905080518251141515610e8957600092505050610fb6565b60008090505b8251811015610fae578181815181101515610ea657fe5b9060200101517f010000000000000000000000000000000000000000000000000000000000000090047f0100000000000000000000000000000000000000000000000000000000000000027effffffffffffffffffffffffffffffffffffffffffffffffffffffffffffff19168382815181101515610f2157fe5b9060200101517f010000000000000000000000000000000000000000000000000000000000000090047f0100000000000000000000000000000000000000000000000000000000000000027effffffffffffffffffffffffffffffffffffffffffffffffffffffffffffff1916141515610fa15760009350505050610fb6565b8080600101915050610e8f565b506001925050505b92915050565b606060018214156110695760048054600181600116156101000203166002900480601f01602080910402602001604051908101604052809291908181526020018280546001816001161561010002031660029004801561105d5780601f106110325761010080835404028352916020019161105d565b820191906000526020600020905b81548152906001019060200180831161104057829003601f168201915b50505050509050611107565b60058054600181600116156101000203166002900480601f0160208091040260200160405190810160405280929190818152602001828054600181600116156101000203166002900480156110ff5780601f106110d4576101008083540402835291602001916110ff565b820191906000526020600020905b8154815290600101906020018083116110e257829003601f168201915b505050505090505b919050565b602060405190810160405280600081525060049080519060200190611132929190612157565b50602060405190810160405280600081525060059080519060200190611159929190612157565b506111846000809054906101000a900473ffffffffffffffffffffffffffffffffffffffff16612122565b6111af600160009054906101000a900473ffffffffffffffffffffffffffffffffffffffff16612122565b600060010260028190555060006001026003819055507fffffffffffffffffffffffffffffffffffffffffffffffffffffffffffffffff600681905550565b60006001821415611222576000809054906101000a900473ffffffffffffffffffffffffffffffffffffffff169050611248565b600160009054906101000a900473ffffffffffffffffffffffffffffffffffffffff1690505b919050565b60006001821415611262576002549050611268565b60035490505b919050565b600060018214156113345761132c60048054600181600116156101000203166002900480601f0160208091040260200160405190810160405280929190818152602001828054600181600116156101000203166002900480156113115780601f106112e657610100808354040283529160200191611311565b820191906000526020600020905b8154815290600101906020018083116112f457829003601f168201915b50505050506020604051908101604052806000815250610e67565b1590506113ec565b6113e860058054600181600116156101000203166002900480601f0160208091040260200160405190810160405280929190818152602001828054600181600116156101000203166002900480156113cd5780601f106113a2576101008083540402835291602001916113cd565b820191906000526020600020905b8154815290600101906020018083116113b057829003601f168201915b50505050506020604051908101604052806000815250610e67565b1590505b919050565b60008060009054906101000a900473ffffffffffffffffffffffffffffffffffffffff1673ffffffffffffffffffffffffffffffffffffffff163373ffffffffffffffffffffffffffffffffffffffff16148061149b5750600160009054906101000a900473ffffffffffffffffffffffffffffffffffffffff1673ffffffffffffffffffffffffffffffffffffffff163373ffffffffffffffffffffffffffffffffffffffff16145b15156114a657600080fd5b6000600102600254141580156114c25750600060010260035414155b15156114cd57600080fd5b836000809054906101000a900473ffffffffffffffffffffffffffffffffffffffff1673ffffffffffffffffffffffffffffffffffffffff163373ffffffffffffffffffffffffffffffffffffffff1614801561152a5750600181145b8061158e5750600160009054906101000a900473ffffffffffffffffffffffffffffffffffffffff1673ffffffffffffffffffffffffffffffffffffffff163373ffffffffffffffffffffffffffffffffffffffff1614801561158d5750600281145b5b151561159957600080fd5b6000838051906020012085805190602001201890506000809054906101000a900473ffffffffffffffffffffffffffffffffffffffff1673ffffffffffffffffffffffffffffffffffffffff163373ffffffffffffffffffffffffffffffffffffffff1614156117dd576002548114156117dc5761164c856040805190810160405280600481526020017f526f636b00000000000000000000000000000000000000000000000000000000815250610e67565b156116a7576040805190810160405280600481526020017f526f636b000000000000000000000000000000000000000000000000000000008152506004908051906020019061169c929190612157565b506001925050611a13565b6116e6856040805190810160405280600581526020017f5061706572000000000000000000000000000000000000000000000000000000815250610e67565b15611741576040805190810160405280600581526020017f506170657200000000000000000000000000000000000000000000000000000081525060049080519060200190611736929190612157565b506001925050611a13565b611780856040805190810160405280600881526020017f53636973736f7273000000000000000000000000000000000000000000000000815250610e67565b156117db576040805190810160405280600881526020017f53636973736f7273000000000000000000000000000000000000000000000000815250600490805190602001906117d0929190612157565b506001925050611a13565b5b5b600160009054906101000a900473ffffffffffffffffffffffffffffffffffffffff1673ffffffffffffffffffffffffffffffffffffffff163373ffffffffffffffffffffffffffffffffffffffff161415611a0d57600354811415611a0c5761187c856040805190810160405280600481526020017f526f636b00000000000000000000000000000000000000000000000000000000815250610e67565b156118d7576040805190810160405280600481526020017f526f636b00000000000000000000000000000000000000000000000000000000815250600590805190602001906118cc929190612157565b506001925050611a13565b611916856040805190810160405280600581526020017f5061706572000000000000000000000000000000000000000000000000000000815250610e67565b15611971576040805190810160405280600581526020017f506170657200000000000000000000000000000000000000000000000000000081525060059080519060200190611966929190612157565b506001925050611a13565b6119b0856040805190810160405280600881526020017f53636973736f7273000000000000000000000000000000000000000000000000815250610e67565b15611a0b576040805190810160405280600881526020017f53636973736f727300000000000000000000000000000000000000000000000081525060059080519060200190611a00929190612157565b506001925050611a13565b5b5b60009250505b509392505050565b6000600654905090565b60008060010260025414158015611a425750600060010260035414155b1515611a4d57600080fd5b6000611b8d60048054600181600116156101000203166002900480601f016020809104026020016040519081016040528092919081815260200182805460018160011615610100020316600290048015611ae85780601f10611abd57610100808354040283529160200191611ae8565b820191906000526020600020905b815481529060010190602001808311611acb57829003601f168201915b505050505060058054600181600116156101000203166002900480601f016020809104026020016040519081016040528092919081815260200182805460018160011615610100020316600290048015611b835780601f10611b5857610100808354040283529160200191611b83565b820191906000526020600020905b815481529060010190602001808311611b6657829003601f168201915b5050505050611d85565b90506001811415611c0d576000809054906101000a900473ffffffffffffffffffffffffffffffffffffffff1673ffffffffffffffffffffffffffffffffffffffff166108fc678ac7230489e800009081150290604051600060405180830381858888f19350505050158015611c07573d6000803e3d6000fd5b50611d6f565b6002811415611c8c57600160009054906101000a900473ffffffffffffffffffffffffffffffffffffffff1673ffffffffffffffffffffffffffffffffffffffff166108fc678ac7230489e800009081150290604051600060405180830381858888f19350505050158015611c86573d6000803e3d6000fd5b50611d6e565b6000809054906101000a900473ffffffffffffffffffffffffffffffffffffffff1673ffffffffffffffffffffffffffffffffffffffff166108fc674563918244f400009081150290604051600060405180830381858888f19350505050158015611cfb573d6000803e3d6000fd5b50600160009054906101000a900473ffffffffffffffffffffffffffffffffffffffff1673ffffffffffffffffffffffffffffffffffffffff166108fc674563918244f400009081150290604051600060405180830381858888f19350505050158015611d6c573d6000803e3d6000fd5b505b5b611d7761110c565b806006819055508091505090565b6000611d918383610e67565b15611d9f576000905061211c565b611dde836040805190810160405280600481526020017f526f636b00000000000000000000000000000000000000000000000000000000815250610e67565b8015611e255750611e24826040805190810160405280600881526020017f53636973736f7273000000000000000000000000000000000000000000000000815250610e67565b5b15611e33576001905061211c565b611e72836040805190810160405280600481526020017f526f636b00000000000000000000000000000000000000000000000000000000815250610e67565b8015611eb95750611eb8826040805190810160405280600581526020017f5061706572000000000000000000000000000000000000000000000000000000815250610e67565b5b15611ec7576002905061211c565b611f06836040805190810160405280600581526020017f5061706572000000000000000000000000000000000000000000000000000000815250610e67565b8015611f4d5750611f4c826040805190810160405280600481526020017f526f636b00000000000000000000000000000000000000000000000000000000815250610e67565b5b15611f5b576001905061211c565b611f9a836040805190810160405280600581526020017f5061706572000000000000000000000000000000000000000000000000000000815250610e67565b8015611fe15750611fe0826040805190810160405280600881526020017f53636973736f7273000000000000000000000000000000000000000000000000815250610e67565b5b15611fef576002905061211c565b61202e836040805190810160405280600881526020017f53636973736f7273000000000000000000000000000000000000000000000000815250610e67565b80156120755750612074826040805190810160405280600481526020017f526f636b00000000000000000000000000000000000000000000000000000000815250610e67565b5b15612083576002905061211c565b6120c2836040805190810160405280600881526020017f53636973736f7273000000000000000000000000000000000000000000000000815250610e67565b80156121095750612108826040805190810160405280600581526020017f5061706572000000000000000000000000000000000000000000000000000000815250610e67565b5b15612117576001905061211c565b600090505b92915050565b6000905050565b6000600182141561214557600060010260025414159050612152565b6000600102600354141590505b919050565b828054600181600116156101000203166002900490600052602060002090601f016020900481019282601f1061219857805160ff19168380011785556121c6565b828001600101855582156121c6579182015b828111156121c55782518255916020019190600101906121aa565b5b5090506121d391906121d7565b5090565b6121f991905b808211156121f55760008160009055506001016121dd565b5090565b9056fea165627a7a723058200b09e7126ba2071f79ef2291e16909f380c2c54da15cc8a6ff5be79aeb184cdd0029",
  "source": "pragma solidity ^0.5.0;\n\ncontract RockPaperScissors {\n  address payable player1;\n  address payable player2;\n  bytes32 hash1;\n  bytes32 hash2;\n  string revealedP1Shape;\n  string revealedP2Shape;\n  int winnerPlayer;\n\n  constructor() public payable { }\n  function() external payable { }\n\n\n  modifier notRegisteredYet() {\n    require (msg.sender != player1 && msg.sender != player2);\n    _;\n  }\n\n  modifier isRegistered() {\n    require (msg.sender == player1 || msg.sender == player2);\n    _;\n  }\n\n  modifier hasEnoughEther() {\n    // 2 eth = 2,000,000,000,000,000,000 wei\n    //require(msg.value>=2000000000000000000);\n    require(msg.value >= 2 ether);\n    _;\n  }\n\n  modifier bothLocked(){\n    require( hash1 != bytes32(0) && hash2 != bytes32(0));\n    _;\n  }\n\n  modifier correctPlayer(int playerNumber) {\n    require( (msg.sender == player1 && playerNumber == 1) || (msg.sender == player2 && playerNumber == 2) );\n    _;\n  }\n\n  function getPlayer(int playerNumber) public view returns (address) {\n    if (playerNumber == 1)\n      return player1;\n    else\n      return player2;\n  }\n\n  function getLocked(int playerNumber) public view returns (bool) {\n    if (playerNumber == 1)\n      return (hash1 != bytes32(0));\n    else\n      return (hash2 != bytes32(0));\n  }\n\n  function isRevealed(int playerNumber) public view returns (bool) {\n    if (playerNumber == 1)\n      return (!stringsEqual(revealedP1Shape,\"\"));\n    else\n      return (!stringsEqual(revealedP2Shape,\"\"));\n  }\n\n\n  function getRevealed(int playerNumber) public view returns (string memory) {\n    if (playerNumber == 1)\n      return revealedP1Shape;\n    else\n      return revealedP2Shape;\n  }\n\n  function getHash(int playerNumber) public view returns (bytes32) {\n    if (playerNumber == 1)\n      return hash1;\n    else\n      return hash2;\n  }\n\n  function getWinner() public view returns (int) {\n    return winnerPlayer;\n  }\n\n  function resetVariables() public {\n    revealedP1Shape = \"\";\n    revealedP2Shape = \"\";\n    nullifyAddr(player1);\n    nullifyAddr(player2);\n\t\thash1 = bytes32(0);\n\t\thash2 = bytes32(0);\n    winnerPlayer = -1;\n  }\n\n\n  function registerPlayer(int playerNumber) public payable notRegisteredYet hasEnoughEther {\n\n    if (playerNumber == 1) {\n      if (player1 == address(0)) {\n          player1 = msg.sender;\n        }\n    } else {\n      if (player2 == address(0)) {\n          player2 = msg.sender;\n      }\n    }\n  }\n\n  // returns bool so we can check if the web UI needs to be updated\n  function lockShape(int playerNumber, string memory shape, string memory randomStringToHash) public correctPlayer(playerNumber) isRegistered returns (bool) {\n    // if the player is locking his own shape AND if it is the player's address that calls this AND if the player's hash has not been set\n    if(msg.sender == player1 && hash1 == bytes32(0)) {\n      // XOR random string with shape\n      hash1 = keccak256(bytes(shape)) ^ keccak256(bytes(randomStringToHash));\n      return true;\n    }\n    if(msg.sender == player2 && hash2 == bytes32(0)) {\n      hash2 = keccak256(bytes(shape)) ^ keccak256(bytes(randomStringToHash));\n      return true;\n    }\n    return false;\n  }\n\n  // returns bool so we can check if the web UI needs to be updated\n  function revealShape(int playerNumber, string memory shape, string memory randomStringToHash) public isRegistered bothLocked correctPlayer(playerNumber) returns (int) {\n    bytes32 tempHash = keccak256(bytes(shape)) ^ keccak256(bytes(randomStringToHash));\n\n    // again, we want to check this so that the player does not unlock the opponent's shape\n\t\tif(msg.sender == player1){\n\t\t\tif(tempHash == hash1){\n\t\t\t\tif(stringsEqual(shape, \"Rock\")) {\n\t\t\t\t\trevealedP1Shape = \"Rock\";\n          return 1;\n\t\t\t\t}\n        if(stringsEqual(shape, \"Paper\")) {\n          revealedP1Shape = \"Paper\";\n          return 1;\n\t\t\t\t}\n        if(stringsEqual(shape, \"Scissors\")) {\n          revealedP1Shape = \"Scissors\";\n          return 1;\n\t\t\t\t}\n        // shape is going to be one of the above\n\t\t\t}\n\t\t}\n    if(msg.sender == player2){\n\t\t\tif(tempHash == hash2){\n\t\t\t\tif(stringsEqual(shape, \"Rock\")) {\n\t\t\t\t\trevealedP2Shape = \"Rock\";\n          return 1;\n\t\t\t\t}\n        if(stringsEqual(shape, \"Paper\")) {\n          revealedP2Shape = \"Paper\";\n          return 1;\n\t\t\t\t}\n        if(stringsEqual(shape, \"Scissors\")) {\n          revealedP2Shape = \"Scissors\";\n          return 1;\n\t\t\t\t}\n\t\t\t}\n\t\t}\n    return 0;\n\t}\n\n\n\n  function computeWinner(string memory revealedP1, string memory revealedP2) pure public returns (int) {\n\n    if (stringsEqual(revealedP1, revealedP2)) return 0;\n    else if (stringsEqual(revealedP1, \"Rock\") && stringsEqual(revealedP2, \"Scissors\")) return 1;\n    else if (stringsEqual(revealedP1, \"Rock\") && stringsEqual(revealedP2, \"Paper\")) return 2;\n    else if (stringsEqual(revealedP1, \"Paper\") && stringsEqual(revealedP2, \"Rock\")) return 1;\n    else if (stringsEqual(revealedP1, \"Paper\") && stringsEqual(revealedP2, \"Scissors\")) return 2;\n    else if (stringsEqual(revealedP1, \"Scissors\") && stringsEqual(revealedP2, \"Rock\")) return 2;\n    else if (stringsEqual(revealedP1, \"Scissors\") && stringsEqual(revealedP2, \"Paper\")) return 1;\n    else return 0;\n\n  }\n\n  // payable??\n  function play() public payable bothLocked returns (int) {\n\n    int winner = computeWinner(revealedP1Shape, revealedP2Shape);\n\n    if (winner == 1) {\n\n      player1.transfer(10 ether);\n\n    } else if (winner == 2) {\n\n      player2.transfer(10 ether);\n\n    } else {\n      // in the case of a draw, send half money to both parties\n      player1.transfer(5 ether);\n\t\t\tplayer2.transfer(5 ether);\n\n    }\n    resetVariables();\n    winnerPlayer = winner;\n    return winner;\n\n  }\n\n\n  function nullifyAddr(address addr) public pure {\n    addr = address(0);\n  }\n\n  function stringsEqual(string memory _a, string memory _b) public pure returns (bool) {\n    bytes memory a = bytes(_a);\n    bytes memory b = bytes(_b);\n\n    if (a.length != b.length)\n        return false;\n\n    for (uint i = 0; i < a.length; i ++)\n        if (a[i] != b[i])\n            return false;\n        return true;\n\n  }\n\n}\n",
  "sourcePath": "/Users/noah-vincenznoeh/Desktop/CW2/contracts/RockPaperScissors.sol",
  "compiler": {
    "name": "solc",
    "version": "0.5.0+commit.1d4f565a.Emscripten.clang"
  },
  "schemaVersion": "3.0.1",
  "updatedAt": "2019-02-12T20:43:32.931Z",
  "devdoc": {
    "methods": {}
  },
  "userdoc": {
    "methods": {}
  }
}